{
  "contractName": "BNBackDividendTracker",
  "abi": [
    {
      "inputs": [],
      "stateMutability": "nonpayable",
      "type": "constructor"
    },
    {
      "anonymous": false,
      "inputs": [
        {
          "indexed": true,
          "internalType": "address",
          "name": "owner",
          "type": "address"
        },
        {
          "indexed": true,
          "internalType": "address",
          "name": "spender",
          "type": "address"
        },
        {
          "indexed": false,
          "internalType": "uint256",
          "name": "value",
          "type": "uint256"
        }
      ],
      "name": "Approval",
      "type": "event"
    },
    {
      "anonymous": false,
      "inputs": [
        {
          "indexed": true,
          "internalType": "address",
          "name": "account",
          "type": "address"
        },
        {
          "indexed": false,
          "internalType": "uint256",
          "name": "amount",
          "type": "uint256"
        },
        {
          "indexed": true,
          "internalType": "bool",
          "name": "automatic",
          "type": "bool"
        }
      ],
      "name": "Claim",
      "type": "event"
    },
    {
      "anonymous": false,
      "inputs": [
        {
          "indexed": true,
          "internalType": "uint256",
          "name": "newValue",
          "type": "uint256"
        },
        {
          "indexed": true,
          "internalType": "uint256",
          "name": "oldValue",
          "type": "uint256"
        }
      ],
      "name": "ClaimWaitUpdated",
      "type": "event"
    },
    {
      "anonymous": false,
      "inputs": [
        {
          "indexed": true,
          "internalType": "address",
          "name": "to",
          "type": "address"
        },
        {
          "indexed": false,
          "internalType": "uint256",
          "name": "weiAmount",
          "type": "uint256"
        }
      ],
      "name": "DividendWithdrawn",
      "type": "event"
    },
    {
      "anonymous": false,
      "inputs": [
        {
          "indexed": true,
          "internalType": "address",
          "name": "from",
          "type": "address"
        },
        {
          "indexed": false,
          "internalType": "uint256",
          "name": "weiAmount",
          "type": "uint256"
        }
      ],
      "name": "DividendsDistributed",
      "type": "event"
    },
    {
      "anonymous": false,
      "inputs": [
        {
          "indexed": true,
          "internalType": "address",
          "name": "account",
          "type": "address"
        }
      ],
      "name": "ExcludeFromDividends",
      "type": "event"
    },
    {
      "anonymous": false,
      "inputs": [
        {
          "indexed": true,
          "internalType": "address",
          "name": "previousOwner",
          "type": "address"
        },
        {
          "indexed": true,
          "internalType": "address",
          "name": "newOwner",
          "type": "address"
        }
      ],
      "name": "OwnershipTransferred",
      "type": "event"
    },
    {
      "anonymous": false,
      "inputs": [
        {
          "indexed": true,
          "internalType": "address",
          "name": "from",
          "type": "address"
        },
        {
          "indexed": true,
          "internalType": "address",
          "name": "to",
          "type": "address"
        },
        {
          "indexed": false,
          "internalType": "uint256",
          "name": "value",
          "type": "uint256"
        }
      ],
      "name": "Transfer",
      "type": "event"
    },
    {
      "inputs": [
        {
          "internalType": "address",
          "name": "_owner",
          "type": "address"
        }
      ],
      "name": "accumulativeDividendOf",
      "outputs": [
        {
          "internalType": "uint256",
          "name": "",
          "type": "uint256"
        }
      ],
      "stateMutability": "view",
      "type": "function"
    },
    {
      "inputs": [
        {
          "internalType": "address",
          "name": "owner",
          "type": "address"
        },
        {
          "internalType": "address",
          "name": "spender",
          "type": "address"
        }
      ],
      "name": "allowance",
      "outputs": [
        {
          "internalType": "uint256",
          "name": "",
          "type": "uint256"
        }
      ],
      "stateMutability": "view",
      "type": "function"
    },
    {
      "inputs": [
        {
          "internalType": "address",
          "name": "spender",
          "type": "address"
        },
        {
          "internalType": "uint256",
          "name": "amount",
          "type": "uint256"
        }
      ],
      "name": "approve",
      "outputs": [
        {
          "internalType": "bool",
          "name": "",
          "type": "bool"
        }
      ],
      "stateMutability": "nonpayable",
      "type": "function"
    },
    {
      "inputs": [
        {
          "internalType": "address",
          "name": "account",
          "type": "address"
        }
      ],
      "name": "balanceOf",
      "outputs": [
        {
          "internalType": "uint256",
          "name": "",
          "type": "uint256"
        }
      ],
      "stateMutability": "view",
      "type": "function"
    },
    {
      "inputs": [],
      "name": "claimWait",
      "outputs": [
        {
          "internalType": "uint256",
          "name": "",
          "type": "uint256"
        }
      ],
      "stateMutability": "view",
      "type": "function"
    },
    {
      "inputs": [],
      "name": "decimals",
      "outputs": [
        {
          "internalType": "uint8",
          "name": "",
          "type": "uint8"
        }
      ],
      "stateMutability": "view",
      "type": "function"
    },
    {
      "inputs": [
        {
          "internalType": "address",
          "name": "spender",
          "type": "address"
        },
        {
          "internalType": "uint256",
          "name": "subtractedValue",
          "type": "uint256"
        }
      ],
      "name": "decreaseAllowance",
      "outputs": [
        {
          "internalType": "bool",
          "name": "",
          "type": "bool"
        }
      ],
      "stateMutability": "nonpayable",
      "type": "function"
    },
    {
      "inputs": [],
      "name": "distributeDividends",
      "outputs": [],
      "stateMutability": "payable",
      "type": "function"
    },
    {
      "inputs": [
        {
          "internalType": "address",
          "name": "_owner",
          "type": "address"
        }
      ],
      "name": "dividendOf",
      "outputs": [
        {
          "internalType": "uint256",
          "name": "",
          "type": "uint256"
        }
      ],
      "stateMutability": "view",
      "type": "function"
    },
    {
      "inputs": [
        {
          "internalType": "address",
          "name": "",
          "type": "address"
        }
      ],
      "name": "excludedFromDividends",
      "outputs": [
        {
          "internalType": "bool",
          "name": "",
          "type": "bool"
        }
      ],
      "stateMutability": "view",
      "type": "function"
    },
    {
      "inputs": [
        {
          "internalType": "address",
          "name": "spender",
          "type": "address"
        },
        {
          "internalType": "uint256",
          "name": "addedValue",
          "type": "uint256"
        }
      ],
      "name": "increaseAllowance",
      "outputs": [
        {
          "internalType": "bool",
          "name": "",
          "type": "bool"
        }
      ],
      "stateMutability": "nonpayable",
      "type": "function"
    },
    {
      "inputs": [
        {
          "internalType": "address",
          "name": "",
          "type": "address"
        }
      ],
      "name": "lastClaimTimes",
      "outputs": [
        {
          "internalType": "uint256",
          "name": "",
          "type": "uint256"
        }
      ],
      "stateMutability": "view",
      "type": "function"
    },
    {
      "inputs": [],
      "name": "lastProcessedIndex",
      "outputs": [
        {
          "internalType": "uint256",
          "name": "",
          "type": "uint256"
        }
      ],
      "stateMutability": "view",
      "type": "function"
    },
    {
      "inputs": [],
      "name": "minimumTokenBalanceForDividends",
      "outputs": [
        {
          "internalType": "uint256",
          "name": "",
          "type": "uint256"
        }
      ],
      "stateMutability": "view",
      "type": "function"
    },
    {
      "inputs": [],
      "name": "name",
      "outputs": [
        {
          "internalType": "string",
          "name": "",
          "type": "string"
        }
      ],
      "stateMutability": "view",
      "type": "function"
    },
    {
      "inputs": [],
      "name": "owner",
      "outputs": [
        {
          "internalType": "address",
          "name": "",
          "type": "address"
        }
      ],
      "stateMutability": "view",
      "type": "function"
    },
    {
      "inputs": [],
      "name": "renounceOwnership",
      "outputs": [],
      "stateMutability": "nonpayable",
      "type": "function"
    },
    {
      "inputs": [],
      "name": "symbol",
      "outputs": [
        {
          "internalType": "string",
          "name": "",
          "type": "string"
        }
      ],
      "stateMutability": "view",
      "type": "function"
    },
    {
      "inputs": [],
      "name": "totalDividendsDistributed",
      "outputs": [
        {
          "internalType": "uint256",
          "name": "",
          "type": "uint256"
        }
      ],
      "stateMutability": "view",
      "type": "function"
    },
    {
      "inputs": [],
      "name": "totalSupply",
      "outputs": [
        {
          "internalType": "uint256",
          "name": "",
          "type": "uint256"
        }
      ],
      "stateMutability": "view",
      "type": "function"
    },
    {
      "inputs": [
        {
          "internalType": "address",
          "name": "recipient",
          "type": "address"
        },
        {
          "internalType": "uint256",
          "name": "amount",
          "type": "uint256"
        }
      ],
      "name": "transfer",
      "outputs": [
        {
          "internalType": "bool",
          "name": "",
          "type": "bool"
        }
      ],
      "stateMutability": "nonpayable",
      "type": "function"
    },
    {
      "inputs": [
        {
          "internalType": "address",
          "name": "sender",
          "type": "address"
        },
        {
          "internalType": "address",
          "name": "recipient",
          "type": "address"
        },
        {
          "internalType": "uint256",
          "name": "amount",
          "type": "uint256"
        }
      ],
      "name": "transferFrom",
      "outputs": [
        {
          "internalType": "bool",
          "name": "",
          "type": "bool"
        }
      ],
      "stateMutability": "nonpayable",
      "type": "function"
    },
    {
      "inputs": [
        {
          "internalType": "address",
          "name": "newOwner",
          "type": "address"
        }
      ],
      "name": "transferOwnership",
      "outputs": [],
      "stateMutability": "nonpayable",
      "type": "function"
    },
    {
      "inputs": [
        {
          "internalType": "address",
          "name": "_owner",
          "type": "address"
        }
      ],
      "name": "withdrawableDividendOf",
      "outputs": [
        {
          "internalType": "uint256",
          "name": "",
          "type": "uint256"
        }
      ],
      "stateMutability": "view",
      "type": "function"
    },
    {
      "inputs": [
        {
          "internalType": "address",
          "name": "_owner",
          "type": "address"
        }
      ],
      "name": "withdrawnDividendOf",
      "outputs": [
        {
          "internalType": "uint256",
          "name": "",
          "type": "uint256"
        }
      ],
      "stateMutability": "view",
      "type": "function"
    },
    {
      "stateMutability": "payable",
      "type": "receive"
    },
    {
      "inputs": [],
      "name": "withdrawDividend",
      "outputs": [],
      "stateMutability": "pure",
      "type": "function"
    },
    {
      "inputs": [
        {
          "internalType": "address",
          "name": "account",
          "type": "address"
        }
      ],
      "name": "excludeFromDividends",
      "outputs": [],
      "stateMutability": "nonpayable",
      "type": "function"
    },
    {
      "inputs": [
        {
          "internalType": "uint256",
          "name": "newClaimWait",
          "type": "uint256"
        }
      ],
      "name": "updateClaimWait",
      "outputs": [],
      "stateMutability": "nonpayable",
      "type": "function"
    },
    {
      "inputs": [],
      "name": "getLastProcessedIndex",
      "outputs": [
        {
          "internalType": "uint256",
          "name": "",
          "type": "uint256"
        }
      ],
      "stateMutability": "view",
      "type": "function"
    },
    {
      "inputs": [],
      "name": "getNumberOfTokenHolders",
      "outputs": [
        {
          "internalType": "uint256",
          "name": "",
          "type": "uint256"
        }
      ],
      "stateMutability": "view",
      "type": "function"
    },
    {
      "inputs": [
        {
          "internalType": "address",
          "name": "_account",
          "type": "address"
        }
      ],
      "name": "getAccount",
      "outputs": [
        {
          "internalType": "address",
          "name": "account",
          "type": "address"
        },
        {
          "internalType": "int256",
          "name": "index",
          "type": "int256"
        },
        {
          "internalType": "int256",
          "name": "iterationsUntilProcessed",
          "type": "int256"
        },
        {
          "internalType": "uint256",
          "name": "withdrawableDividends",
          "type": "uint256"
        },
        {
          "internalType": "uint256",
          "name": "totalDividends",
          "type": "uint256"
        },
        {
          "internalType": "uint256",
          "name": "lastClaimTime",
          "type": "uint256"
        },
        {
          "internalType": "uint256",
          "name": "nextClaimTime",
          "type": "uint256"
        },
        {
          "internalType": "uint256",
          "name": "secondsUntilAutoClaimAvailable",
          "type": "uint256"
        }
      ],
      "stateMutability": "view",
      "type": "function"
    },
    {
      "inputs": [
        {
          "internalType": "uint256",
          "name": "index",
          "type": "uint256"
        }
      ],
      "name": "getAccountAtIndex",
      "outputs": [
        {
          "internalType": "address",
          "name": "",
          "type": "address"
        },
        {
          "internalType": "int256",
          "name": "",
          "type": "int256"
        },
        {
          "internalType": "int256",
          "name": "",
          "type": "int256"
        },
        {
          "internalType": "uint256",
          "name": "",
          "type": "uint256"
        },
        {
          "internalType": "uint256",
          "name": "",
          "type": "uint256"
        },
        {
          "internalType": "uint256",
          "name": "",
          "type": "uint256"
        },
        {
          "internalType": "uint256",
          "name": "",
          "type": "uint256"
        },
        {
          "internalType": "uint256",
          "name": "",
          "type": "uint256"
        }
      ],
      "stateMutability": "view",
      "type": "function"
    },
    {
      "inputs": [
        {
          "internalType": "address payable",
          "name": "account",
          "type": "address"
        },
        {
          "internalType": "uint256",
          "name": "newBalance",
          "type": "uint256"
        }
      ],
      "name": "setBalance",
      "outputs": [],
      "stateMutability": "nonpayable",
      "type": "function"
    },
    {
      "inputs": [
        {
          "internalType": "uint256",
          "name": "gas",
          "type": "uint256"
        }
      ],
      "name": "process",
      "outputs": [
        {
          "internalType": "uint256",
          "name": "",
          "type": "uint256"
        },
        {
          "internalType": "uint256",
          "name": "",
          "type": "uint256"
        },
        {
          "internalType": "uint256",
          "name": "",
          "type": "uint256"
        }
      ],
      "stateMutability": "nonpayable",
      "type": "function"
    },
    {
      "inputs": [
        {
          "internalType": "address payable",
          "name": "account",
          "type": "address"
        },
        {
          "internalType": "bool",
          "name": "automatic",
          "type": "bool"
        }
      ],
      "name": "processAccount",
      "outputs": [
        {
          "internalType": "bool",
          "name": "",
          "type": "bool"
        }
      ],
      "stateMutability": "nonpayable",
      "type": "function"
    }
  ],
  "bytecode": "0x60a06040523480156200001157600080fd5b5060408051808201825260178082527f424e4261636b5f4469766964656e645f547261636b6572000000000000000000602080840182815285518087019096529285528401528151919291839183916200006e9160039162000115565b5080516200008490600490602084019062000115565b5050505050620000a36200009d620000bf60201b60201c565b620000c3565b610e106011556b204fce5e3e25026110000000608052620001f8565b3390565b600980546001600160a01b038381166001600160a01b0319831681179093556040519116919082907f8be0079c531659141344cd1fd0a4f28419497f9722a3daafe3b4186f6b6457e090600090a35050565b8280546200012390620001bb565b90600052602060002090601f01602090048101928262000147576000855562000192565b82601f106200016257805160ff191683800117855562000192565b8280016001018555821562000192579182015b828111156200019257825182559160200191906001019062000175565b50620001a0929150620001a4565b5090565b5b80821115620001a05760008155600101620001a5565b600181811c90821680620001d057607f821691505b60208210811415620001f257634e487b7160e01b600052602260045260246000fd5b50919050565b60805161226f6200021b600039600081816106080152611055015261226f6000f3fe6080604052600436106102385760003560e01c8063715018a611610138578063bc4c4b37116100b0578063e7841ec01161007f578063f2fde38b11610064578063f2fde38b146106c5578063fbcbc0f1146106e5578063ffb2c4791461070557600080fd5b8063e7841ec014610690578063e98030c7146106a557600080fd5b8063bc4c4b37146105d6578063be10b614146105f6578063dd62ed3e1461062a578063e30443bc1461067057600080fd5b806395d89b4111610107578063a8b9d240116100ec578063a8b9d24014610560578063a9059cbb14610580578063aafd847a146105a057600080fd5b806395d89b411461052b578063a457c2d71461054057600080fd5b8063715018a6146104b857806385a6b3ae146104cd5780638da5cb5b146104e357806391b89fba1461050b57600080fd5b80633009a609116101cb5780634e7b827f1161019a5780636a4740021161017f5780636a474002146104575780636f2789ec1461046c57806370a082311461048257600080fd5b80634e7b827f146103c25780635183d6fd146103f257600080fd5b80633009a60914610350578063313ce5671461036657806331e79db01461038257806339509351146103a257600080fd5b806318160ddd1161020757806318160ddd146102ce578063226cfa3d146102e357806323b872dd1461031057806327ce01471461033057600080fd5b806303c833021461024c57806306fdde0314610254578063095ea7b31461027f57806309bbedde146102af57600080fd5b3661024757610245610740565b005b600080fd5b610245610740565b34801561026057600080fd5b506102696107e0565b604051610276919061202d565b60405180910390f35b34801561028b57600080fd5b5061029f61029a366004611f60565b610872565b6040519015158152602001610276565b3480156102bb57600080fd5b50600a545b604051908152602001610276565b3480156102da57600080fd5b506002546102c0565b3480156102ef57600080fd5b506102c06102fe366004611ee8565b60106020526000908152604090205481565b34801561031c57600080fd5b5061029f61032b366004611fba565b610889565b34801561033c57600080fd5b506102c061034b366004611ee8565b61094d565b34801561035c57600080fd5b506102c0600e5481565b34801561037257600080fd5b5060405160128152602001610276565b34801561038e57600080fd5b5061024561039d366004611ee8565b6109b6565b3480156103ae57600080fd5b5061029f6103bd366004611f60565b610b0d565b3480156103ce57600080fd5b5061029f6103dd366004611ee8565b600f6020526000908152604090205460ff1681565b3480156103fe57600080fd5b5061041261040d366004612014565b610b49565b604080516001600160a01b0390991689526020890197909752958701949094526060860192909252608085015260a084015260c083015260e082015261010001610276565b34801561046357600080fd5b50610245610cd4565b34801561047857600080fd5b506102c060115481565b34801561048e57600080fd5b506102c061049d366004611ee8565b6001600160a01b031660009081526020819052604090205490565b3480156104c457600080fd5b50610245610d8e565b3480156104d957600080fd5b506102c060085481565b3480156104ef57600080fd5b506009546040516001600160a01b039091168152602001610276565b34801561051757600080fd5b506102c0610526366004611ee8565b610df2565b34801561053757600080fd5b50610269610dfd565b34801561054c57600080fd5b5061029f61055b366004611f60565b610e0c565b34801561056c57600080fd5b506102c061057b366004611ee8565b610ebd565b34801561058c57600080fd5b5061029f61059b366004611f60565b610ee9565b3480156105ac57600080fd5b506102c06105bb366004611ee8565b6001600160a01b031660009081526007602052604090205490565b3480156105e257600080fd5b5061029f6105f1366004611f22565b610ef6565b34801561060257600080fd5b506102c07f000000000000000000000000000000000000000000000000000000000000000081565b34801561063657600080fd5b506102c0610645366004611f8c565b6001600160a01b03918216600090815260016020908152604080832093909416825291909152205490565b34801561067c57600080fd5b5061024561068b366004611f60565b610fd4565b34801561069c57600080fd5b50600e546102c0565b3480156106b157600080fd5b506102456106c0366004612014565b6111aa565b3480156106d157600080fd5b506102456106e0366004611ee8565b61135c565b3480156106f157600080fd5b50610412610700366004611ee8565b61143e565b34801561071157600080fd5b50610725610720366004612014565b6115cf565b60408051938452602084019290925290820152606001610276565b600061074b60025490565b1161075557600080fd5b34156107de5761079561076760025490565b610782347001000000000000000000000000000000006116ea565b61078c91906120f2565b600554906116fd565b60055560405134815233907fa493a9229478c3fcd73f66d2cdeb7f94fd0f341da924d1054236d784541165119060200160405180910390a26008546107da90346116fd565b6008555b565b6060600380546107ef906121a2565b80601f016020809104026020016040519081016040528092919081815260200182805461081b906121a2565b80156108685780601f1061083d57610100808354040283529160200191610868565b820191906000526020600020905b81548152906001019060200180831161084b57829003601f168201915b5050505050905090565b600061087f338484611709565b5060015b92915050565b6000610896848484611861565b6001600160a01b0384166000908152600160209081526040808320338452909152902054828110156109355760405162461bcd60e51b815260206004820152602860248201527f45524332303a207472616e7366657220616d6f756e742065786365656473206160448201527f6c6c6f77616e636500000000000000000000000000000000000000000000000060648201526084015b60405180910390fd5b6109428533858403611709565b506001949350505050565b6001600160a01b03811660009081526006602090815260408083205491839052822054600554700100000000000000000000000000000000926109ac926109a7926109a19161099c91906116ea565b6118cf565b906118df565b61191d565b61088391906120f2565b6009546001600160a01b03163314610a105760405162461bcd60e51b815260206004820181905260248201527f4f776e61626c653a2063616c6c6572206973206e6f7420746865206f776e6572604482015260640161092c565b6001600160a01b0381166000908152600f602052604090205460ff1615610a3657600080fd5b6001600160a01b0381166000908152600f60205260408120805460ff19166001179055610a64908290611930565b60405163131836e760e21b8152600a60048201526001600160a01b038216602482015273__IterableMapping_______________________90634c60db9c9060440160006040518083038186803b158015610abe57600080fd5b505af4158015610ad2573d6000803e3d6000fd5b50506040516001600160a01b03841692507fa878b31040b2e6d0a9a3d3361209db3908ba62014b0dca52adbaee451d128b259150600090a250565b3360008181526001602090815260408083206001600160a01b0387168452909152812054909161087f918590610b449086906120da565b611709565b600080600080600080600080600a73__IterableMapping_______________________63deb3d89690916040518263ffffffff1660e01b8152600401610b9191815260200190565b60206040518083038186803b158015610ba957600080fd5b505af4158015610bbd573d6000803e3d6000fd5b505050506040513d601f19601f82011682018060405250810190610be19190611ffb565b8910610c06575060009650600019955085945086935083925082915081905080610cc9565b6040517fd1aa9e7e000000000000000000000000000000000000000000000000000000008152600a6004820152602481018a905260009073__IterableMapping_______________________9063d1aa9e7e9060440160206040518083038186803b158015610c7457600080fd5b505af4158015610c88573d6000803e3d6000fd5b505050506040513d601f19601f82011682018060405250810190610cac9190611f05565b9050610cb78161143e565b98509850985098509850985098509850505b919395975091939597565b60405162461bcd60e51b815260206004820152606960248201527f424e4261636b5f4469766964656e645f547261636b65723a207769746864726160448201527f774469766964656e642064697361626c65642e20557365207468652027636c6160648201527f696d272066756e6374696f6e206f6e20746865206d61696e20424e4261636b2060848201527f636f6e74726163742e000000000000000000000000000000000000000000000060a482015260c40161092c565b6009546001600160a01b03163314610de85760405162461bcd60e51b815260206004820181905260248201527f4f776e61626c653a2063616c6c6572206973206e6f7420746865206f776e6572604482015260640161092c565b6107de6000611995565b600061088382610ebd565b6060600480546107ef906121a2565b3360009081526001602090815260408083206001600160a01b038616845290915281205482811015610ea65760405162461bcd60e51b815260206004820152602560248201527f45524332303a2064656372656173656420616c6c6f77616e63652062656c6f7760448201527f207a65726f000000000000000000000000000000000000000000000000000000606482015260840161092c565b610eb33385858403611709565b5060019392505050565b6001600160a01b03811660009081526007602052604081205461088390610ee38461094d565b906119ff565b600061087f338484611861565b6009546000906001600160a01b03163314610f535760405162461bcd60e51b815260206004820181905260248201527f4f776e61626c653a2063616c6c6572206973206e6f7420746865206f776e6572604482015260640161092c565b6000610f5e84611a0b565b90508015610fca576001600160a01b038416600081815260106020526040908190204290555184151591907fa2c38e2d2fb7e3e1912d937fd1ca11ed6d51864dee4cfa7a7bf02becd7acf09290610fb89085815260200190565b60405180910390a36001915050610883565b5060009392505050565b6009546001600160a01b0316331461102e5760405162461bcd60e51b815260206004820181905260248201527f4f776e61626c653a2063616c6c6572206973206e6f7420746865206f776e6572604482015260640161092c565b6001600160a01b0382166000908152600f602052604090205460ff1615611053575050565b7f0000000000000000000000000000000000000000000000000000000000000000811061111b576110848282611930565b6040517fbc2b405c000000000000000000000000000000000000000000000000000000008152600a60048201526001600160a01b03831660248201526044810182905273__IterableMapping_______________________9063bc2b405c9060640160006040518083038186803b1580156110fe57600080fd5b505af4158015611112573d6000803e3d6000fd5b50505050611199565b611126826000611930565b60405163131836e760e21b8152600a60048201526001600160a01b038316602482015273__IterableMapping_______________________90634c60db9c9060440160006040518083038186803b15801561118057600080fd5b505af4158015611194573d6000803e3d6000fd5b505050505b6111a4826001610ef6565b505b5050565b6009546001600160a01b031633146112045760405162461bcd60e51b815260206004820181905260248201527f4f776e61626c653a2063616c6c6572206973206e6f7420746865206f776e6572604482015260640161092c565b610e1081101580156112195750620151808111155b6112b15760405162461bcd60e51b815260206004820152604c60248201527f424e4261636b5f4469766964656e645f547261636b65723a20636c61696d576160448201527f6974206d757374206265207570646174656420746f206265747765656e20312060648201527f616e6420323420686f7572730000000000000000000000000000000000000000608482015260a40161092c565b6011548114156113295760405162461bcd60e51b815260206004820152603e60248201527f424e4261636b5f4469766964656e645f547261636b65723a2043616e6e6f742060448201527f75706461746520636c61696d5761697420746f2073616d652076616c75650000606482015260840161092c565b60115460405182907f474ea64804364a1e29a4487ddb63c3342a2dd826ccd8acf48825e680a0e6f20f90600090a3601155565b6009546001600160a01b031633146113b65760405162461bcd60e51b815260206004820181905260248201527f4f776e61626c653a2063616c6c6572206973206e6f7420746865206f776e6572604482015260640161092c565b6001600160a01b0381166114325760405162461bcd60e51b815260206004820152602660248201527f4f776e61626c653a206e6577206f776e657220697320746865207a65726f206160448201527f6464726573730000000000000000000000000000000000000000000000000000606482015260840161092c565b61143b81611995565b50565b6040517f17e142d1000000000000000000000000000000000000000000000000000000008152600a60048201526001600160a01b0382166024820152819060009081908190819081908190819073__IterableMapping_______________________906317e142d19060440160206040518083038186803b1580156114c257600080fd5b505af41580156114d6573d6000803e3d6000fd5b505050506040513d601f19601f820116820180604052508101906114fa9190611ffb565b965060001995506000871261155c57600e5487111561152857600e54611521908890611b51565b955061155c565b600e54600a546000911061153d57600061154c565b600e54600a5461154c916119ff565b905061155888826118df565b9650505b61156588610ebd565b94506115708861094d565b6001600160a01b03891660009081526010602052604090205490945092508261159a5760006115a8565b6011546115a89084906116fd565b91504282116115b85760006115c2565b6115c282426119ff565b9050919395975091939597565b600a5460009081908190806115ef575050600e54600092508291506116e3565b600e546000805a90506000805b898410801561160a57508582105b156116d25784611619816121dd565b600a549096508610905061162c57600094505b6000600a60000186815481106116445761164461220e565b60009182526020808320909101546001600160a01b0316808352601090915260409091205490915061167590611b8e565b1561169857611685816001610ef6565b156116985781611694816121dd565b9250505b826116a2816121dd565b93505060005a9050808511156116c9576116c66116bf86836119ff565b87906116fd565b95505b93506115fc9050565b600e85905590975095509193505050505b9193909250565b60006116f68284612114565b9392505050565b60006116f682846120da565b6001600160a01b0383166117845760405162461bcd60e51b8152602060048201526024808201527f45524332303a20617070726f76652066726f6d20746865207a65726f2061646460448201527f7265737300000000000000000000000000000000000000000000000000000000606482015260840161092c565b6001600160a01b0382166118005760405162461bcd60e51b815260206004820152602260248201527f45524332303a20617070726f766520746f20746865207a65726f20616464726560448201527f7373000000000000000000000000000000000000000000000000000000000000606482015260840161092c565b6001600160a01b0383811660008181526001602090815260408083209487168084529482529182902085905590518481527f8c5be1e5ebec7d5bd14f71427d1e84f3dd0314c0f7b2291e5b200ac8c7c3b925910160405180910390a3505050565b60405162461bcd60e51b815260206004820152602d60248201527f424e4261636b5f4469766964656e645f547261636b65723a204e6f207472616e60448201527f736665727320616c6c6f77656400000000000000000000000000000000000000606482015260840161092c565b6000818181121561088357600080fd5b6000806118ec8385612082565b9050600083121580156118ff5750838112155b80611914575060008312801561191457508381125b6116f657600080fd5b60008082121561192c57600080fd5b5090565b6001600160a01b0382166000908152602081905260409020548082111561196f57600061195d83836119ff565b90506119698482611bb5565b506111a4565b808210156111a457600061198382846119ff565b905061198f8482611c19565b50505050565b600980546001600160a01b038381167fffffffffffffffffffffffff0000000000000000000000000000000000000000831681179093556040519116919082907f8be0079c531659141344cd1fd0a4f28419497f9722a3daafe3b4186f6b6457e090600090a35050565b60006116f6828461218b565b600080611a1783610ebd565b90508015611b48576001600160a01b038316600090815260076020526040902054611a4290826116fd565b6001600160a01b038416600081815260076020526040908190209290925590517fee503bee2bb6a87e57bc57db795f98137327401a0e7b7ce42e37926cc1a9ca4d90611a919084815260200190565b60405180910390a26000836001600160a01b031682610bb890604051600060405180830381858888f193505050503d8060008114611aeb576040519150601f19603f3d011682016040523d82523d6000602084013e611af0565b606091505b5050905080611b41576001600160a01b038416600090815260076020526040902054611b1c90836119ff565b6001600160a01b03909416600090815260076020526040812094909455509192915050565b5092915050565b50600092915050565b600080611b5e8385612133565b905060008312158015611b715750838113155b80611914575060008312801561191457508381136116f657600080fd5b600042821115611ba057506000919050565b601154611bad42846119ff565b101592915050565b611bbf8282611c5d565b611bf9611bda61099c836005546116ea90919063ffffffff16565b6001600160a01b03841660009081526006602052604090205490611b51565b6001600160a01b0390921660009081526006602052604090209190915550565b611c238282611d50565b611bf9611c3e61099c836005546116ea90919063ffffffff16565b6001600160a01b038416600090815260066020526040902054906118df565b6001600160a01b038216611cb35760405162461bcd60e51b815260206004820152601f60248201527f45524332303a206d696e7420746f20746865207a65726f206164647265737300604482015260640161092c565b611cbf600083836111a4565b8060026000828254611cd191906120da565b90915550506001600160a01b03821660009081526020819052604081208054839290611cfe9084906120da565b90915550506040518181526001600160a01b038316906000907fddf252ad1be2c89b69c2b068fc378daa952ba7f163c4a11628f55a4df523b3ef9060200160405180910390a36111a6600083836111a4565b6001600160a01b038216611dcc5760405162461bcd60e51b815260206004820152602160248201527f45524332303a206275726e2066726f6d20746865207a65726f2061646472657360448201527f7300000000000000000000000000000000000000000000000000000000000000606482015260840161092c565b611dd8826000836111a4565b6001600160a01b03821660009081526020819052604090205481811015611e675760405162461bcd60e51b815260206004820152602260248201527f45524332303a206275726e20616d6f756e7420657863656564732062616c616e60448201527f6365000000000000000000000000000000000000000000000000000000000000606482015260840161092c565b6001600160a01b0383166000908152602081905260408120838303905560028054849290611e9690849061218b565b90915550506040518281526000906001600160a01b038516907fddf252ad1be2c89b69c2b068fc378daa952ba7f163c4a11628f55a4df523b3ef9060200160405180910390a36111a4836000846111a4565b600060208284031215611efa57600080fd5b81356116f681612224565b600060208284031215611f1757600080fd5b81516116f681612224565b60008060408385031215611f3557600080fd5b8235611f4081612224565b915060208301358015158114611f5557600080fd5b809150509250929050565b60008060408385031215611f7357600080fd5b8235611f7e81612224565b946020939093013593505050565b60008060408385031215611f9f57600080fd5b8235611faa81612224565b91506020830135611f5581612224565b600080600060608486031215611fcf57600080fd5b8335611fda81612224565b92506020840135611fea81612224565b929592945050506040919091013590565b60006020828403121561200d57600080fd5b5051919050565b60006020828403121561202657600080fd5b5035919050565b600060208083528351808285015260005b8181101561205a5785810183015185820160400152820161203e565b8181111561206c576000604083870101525b50601f01601f1916929092016040019392505050565b6000808212827f7fffffffffffffffffffffffffffffffffffffffffffffffffffffffffffffff038413811516156120bc576120bc6121f8565b82600160ff1b0384128116156120d4576120d46121f8565b50500190565b600082198211156120ed576120ed6121f8565b500190565b60008261210f57634e487b7160e01b600052601260045260246000fd5b500490565b600081600019048311821515161561212e5761212e6121f8565b500290565b600080831283600160ff1b01831281151615612151576121516121f8565b837f7fffffffffffffffffffffffffffffffffffffffffffffffffffffffffffffff018313811615612185576121856121f8565b50500390565b60008282101561219d5761219d6121f8565b500390565b600181811c908216806121b657607f821691505b602082108114156121d757634e487b7160e01b600052602260045260246000fd5b50919050565b60006000198214156121f1576121f16121f8565b5060010190565b634e487b7160e01b600052601160045260246000fd5b634e487b7160e01b600052603260045260246000fd5b6001600160a01b038116811461143b57600080fdfea2646970667358221220d120b50dace1b7cf4adb7aa5c6ec44977011848c9d16a7a7862548e97f03a10064736f6c63430008070033",
  "immutableReferences": {
    "4277": [
      {
        "length": 32,
        "start": 1544
      },
      {
        "length": 32,
        "start": 4181
      }
    ]
  },
  "source": "// SPDX-License-Identifier: MIT\n\npragma solidity ^0.8.7;\n\nimport \"./DividendPayingToken.sol\";\nimport \"@openzeppelin/contracts/utils/math/SafeMath.sol\";\nimport \"./IterableMapping.sol\";\nimport \"@openzeppelin/contracts/access/Ownable.sol\";\nimport \"@pancakeswap-libs/pancake-swap-core/contracts/interfaces/IPancakePair.sol\";\nimport \"@pancakeswap-libs/pancake-swap-core/contracts/interfaces/IPancakeFactory.sol\";\nimport \"@theanthill/pancake-swap-periphery/contracts/interfaces/IPancakeRouter02.sol\";\n\ncontract BNBack is ERC20, Ownable {\n  using SafeMath for uint256;\n\n  IPancakeRouter02 public uniswapV2Router;\n  address public  uniswapV2Pair;\n\n  bool private swapping;\n\n  BNBackDividendTracker public dividendTracker;\n\n  address public deadWallet = 0x000000000000000000000000000000000000dEaD;\n\n  uint256 public swapTokensAtAmount = 100000000000 * (10**18);\n  uint256 public maxTxAmount = 2000000000000 * (10**18);\n  uint256 public maxSellTransactionAmount = 375000000000 * (10**18);\n  uint256 public maxWalletBalance = 1000000000000000 * (10**18);\n\n  uint256 public sellFeeIncreaseFactor = 9;\n\n  //mapping(address => bool) public _isBlacklisted;\n\n  uint256 public BNBRewardsFee = 10;\n  uint256 public liquidityFee = 2;\n  uint256 public marketingFee = 3;\n  uint256 public totalFees = BNBRewardsFee.add(liquidityFee).add(marketingFee);\n  address payable public _marketingWalletAddress = payable(0x5D4411A256F49239F7F9FD51934FE32cca9BDD65);\n\n  // use by default 300,000 gas to process auto-claiming dividends\n  uint256 public gasForProcessing = 300000;\n\n  // exlcude from fees and max transaction amount\n  mapping (address => bool) private _isExcludedFromFees;\n\n  // store addresses that a automatic market maker pairs. Any transfer *to* these addresses\n  // could be subject to a maximum transfer amount\n  mapping (address => bool) public automatedMarketMakerPairs;\n\n  event UpdateDividendTracker(address indexed newAddress, address indexed oldAddress);\n\n  event UpdateUniswapV2Router(address indexed newAddress, address indexed oldAddress);\n\n  event ExcludeFromFees(address indexed account, bool isExcluded);\n\n  event ExcludeMultipleAccountsFromFees(address[] accounts, bool isExcluded);\n\n  event SetAutomatedMarketMakerPair(address indexed pair, bool indexed value);\n\n  event LiquidityWalletUpdated(address indexed newLiquidityWallet, address indexed oldLiquidityWallet);\n\n  event GasForProcessingUpdated(uint256 indexed newValue, uint256 indexed oldValue);\n\n  event SwapAndLiquify(\n    uint256 tokensSwapped,\n    uint256 ethReceived,\n    uint256 tokensIntoLiqudity\n    );\n\n  event SendDividends(\n    uint256 tokensSwapped,\n    uint256 amount\n    );\n\n  event ProcessedDividendTracker(\n    uint256 iterations,\n    uint256 claims,\n    uint256 lastProcessedIndex,\n    bool indexed automatic,\n    uint256 gas,\n    address indexed processor\n    );\n\n  constructor() ERC20(\"BNBack\", \"BNBK\") {\n\n    dividendTracker = new BNBackDividendTracker();\n\n    IPancakeRouter02 _uniswapV2Router = IPancakeRouter02(0xD99D1c33F9fC3444f8101754aBC46c52416550D1);\n\n    // Create a uniswap pair for this new token\n    address _uniswapV2Pair = IPancakeFactory(_uniswapV2Router.factory()).createPair(address(this), _uniswapV2Router.WETH());\n    uniswapV2Router = _uniswapV2Router;\n    uniswapV2Pair = _uniswapV2Pair;\n\n    _setAutomatedMarketMakerPair(_uniswapV2Pair, true);\n\n    // exclude from receiving dividends\n    dividendTracker.excludeFromDividends(address(dividendTracker));\n    dividendTracker.excludeFromDividends(address(this));\n    dividendTracker.excludeFromDividends(deadWallet);\n    dividendTracker.excludeFromDividends(address(_uniswapV2Router));\n\n    // exclude from paying fees or having max transaction amount\n    excludeFromFees(owner(), true);\n    excludeFromFees(_marketingWalletAddress, true);\n    excludeFromFees(address(this), true);\n\n    // _mint is an internal function in ERC20.sol that is only called here, and CANNOT be called ever again\n    _mint(msg.sender, 1000000000000000 * (10**18));\n    }\n\n  receive() external payable {}\n\n  function updateDividendTracker(address newAddress) public onlyOwner {\n    require(newAddress != address(dividendTracker), \"BNBack: The dividend tracker already has that address\");\n    BNBackDividendTracker newDividendTracker = BNBackDividendTracker(payable(newAddress));\n    require(newDividendTracker.owner() == address(this), \"BNBack: The new dividend tracker must be owned by the BNBack token contract\");\n    newDividendTracker.excludeFromDividends(address(newDividendTracker));\n    newDividendTracker.excludeFromDividends(address(this));\n    newDividendTracker.excludeFromDividends(owner());\n    newDividendTracker.excludeFromDividends(address(uniswapV2Router));\n\n    emit UpdateDividendTracker(newAddress, address(dividendTracker));\n\n    dividendTracker = newDividendTracker;\n    }\n\n  function updateUniswapV2Router(address newAddress) public onlyOwner {\n    require(newAddress != address(uniswapV2Router), \"BNBack: The router already has that address\");\n    emit UpdateUniswapV2Router(newAddress, address(uniswapV2Router));\n    uniswapV2Router = IPancakeRouter02(newAddress);\n    address _uniswapV2Pair = IPancakeFactory(uniswapV2Router.factory()).createPair(address(this), uniswapV2Router.WETH());\n    uniswapV2Pair = _uniswapV2Pair;\n    }\n\n  function excludeFromFees(address account, bool excluded) public onlyOwner {\n    require(_isExcludedFromFees[account] != excluded, \"BNBack: Account is already the value of 'excluded'\");\n    _isExcludedFromFees[account] = excluded;\n\n    emit ExcludeFromFees(account, excluded);\n    }\n\n  function excludeMultipleAccountsFromFees(address[] calldata accounts, bool excluded) public onlyOwner {\n    for(uint256 i = 0; i < accounts.length; i++) {\n      _isExcludedFromFees[accounts[i]] = excluded;\n      }\n\n    emit ExcludeMultipleAccountsFromFees(accounts, excluded);\n    }\n\n  function setMarketingWallet(address payable wallet) external onlyOwner{\n    _marketingWalletAddress = wallet;\n    }\n\n  function setBNBRewardsFee(uint256 value) external onlyOwner{\n    BNBRewardsFee = value;\n    totalFees = BNBRewardsFee.add(liquidityFee).add(marketingFee);\n    }\n\n  function setLiquiditFee(uint256 value) external onlyOwner{\n    liquidityFee = value;\n    totalFees = BNBRewardsFee.add(liquidityFee).add(marketingFee);\n    }\n\n  function setMarketingFee(uint256 value) external onlyOwner{\n    marketingFee = value;\n    totalFees = BNBRewardsFee.add(liquidityFee).add(marketingFee);\n    }\n\n  function setMaxTxAmount(uint256 amount) external onlyOwner{\n    maxTxAmount = amount * (10**18);\n    }\n\n  function setMaxWalletBalance(uint256 amount) external onlyOwner{\n    maxWalletBalance = amount * (10**18);\n    }\n\n  function setAutomatedMarketMakerPair(address pair, bool value) public onlyOwner {\n    require(pair != uniswapV2Pair, \"BNBack: The PanCAKESwap pair cannot be removed from automatedMarketMakerPairs\");\n\n    _setAutomatedMarketMakerPair(pair, value);\n    }\n\n  function setSellFeeIncreaseFactor(uint256 sellFee) external onlyOwner {\n    sellFeeIncreaseFactor = sellFee;\n    }\n\n  function setSwapTokensAtAmount(uint256 amount) external onlyOwner {\n    swapTokensAtAmount = amount;\n    }\n\n  // function blacklistAddress(address account, bool value) external onlyOwner{\n  //   _isBlacklisted[account] = value;\n  //   }\n\n\n  function _setAutomatedMarketMakerPair(address pair, bool value) private {\n    require(automatedMarketMakerPairs[pair] != value, \"BNBack: Automated market maker pair is already set to that value\");\n    automatedMarketMakerPairs[pair] = value;\n    if(value) {\n      dividendTracker.excludeFromDividends(pair);\n      }\n    emit SetAutomatedMarketMakerPair(pair, value);\n    }\n\n  function updateGasForProcessing(uint256 newValue) public onlyOwner {\n    require(newValue >= 200000 && newValue <= 500000, \"BNBack: gasForProcessing must be between 200,000 and 500,000\");\n    require(newValue != gasForProcessing, \"BNBack: Cannot update gasForProcessing to same value\");\n    emit GasForProcessingUpdated(newValue, gasForProcessing);\n    gasForProcessing = newValue;\n    }\n\n  function updateClaimWait(uint256 claimWait) external onlyOwner {\n    dividendTracker.updateClaimWait(claimWait);\n    }\n\n  function getClaimWait() external view returns(uint256) {\n    return dividendTracker.claimWait();\n    }\n\n  function getTotalDividendsDistributed() external view returns (uint256) {\n    return dividendTracker.totalDividendsDistributed();\n    }\n\n  function isExcludedFromFees(address account) public view returns(bool) {\n    return _isExcludedFromFees[account];\n    }\n\n  function withdrawableDividendOf(address account) public view returns(uint256) {\n    return dividendTracker.withdrawableDividendOf(account);\n    }\n\n  function dividendTokenBalanceOf(address account) public view returns (uint256) {\n    return dividendTracker.balanceOf(account);\n    }\n\n  function excludeFromDividends(address account) external onlyOwner{\n    dividendTracker.excludeFromDividends(account);\n    }\n\n  function getAccountDividendsInfo(address account) external view returns (\n    address,\n    int256,\n    int256,\n    uint256,\n    uint256,\n    uint256,\n    uint256,\n    uint256) {\n      return dividendTracker.getAccount(account);\n    }\n\n\tfunction getAccountDividendsInfoAtIndex(uint256 index)\n        external view returns (\n            address,\n            int256,\n            int256,\n            uint256,\n            uint256,\n            uint256,\n            uint256,\n            uint256) {\n    \treturn dividendTracker.getAccountAtIndex(index);\n    }\n\n\tfunction processDividendTracker(uint256 gas) external {\n\t\t(uint256 iterations, uint256 claims, uint256 lastProcessedIndex) = dividendTracker.process(gas);\n\t\temit ProcessedDividendTracker(iterations, claims, lastProcessedIndex, false, gas, tx.origin);\n    }\n\n    function claim() external {\n\t\tdividendTracker.processAccount(payable(msg.sender), false);\n    }\n\n    function getLastProcessedIndex() external view returns(uint256) {\n    \treturn dividendTracker.getLastProcessedIndex();\n    }\n\n    function getNumberOfDividendTokenHolders() external view returns(uint256) {\n        return dividendTracker.getNumberOfTokenHolders();\n    }\n\n    function sendToBuyBackWallet() external onlyOwner {\n        uint256 contractTokenBalance = balanceOf(address(this));\n        if (!swapping) {\n                swapTokensForEth(contractTokenBalance);\n                _marketingWalletAddress.transfer(address(this).balance);\n            }  \n    }\n\n\n    function _transfer(\n        address from,\n        address to,\n        uint256 amount\n    ) internal override {\n        require(from != address(0), \"ERC20: transfer from the zero address\");\n        require(to != address(0), \"ERC20: transfer to the zero address\");\n        //require(!_isBlacklisted[from] && !_isBlacklisted[to], 'Blacklisted address');\n\n        if(amount == 0) {\n            super._transfer(from, to, 0);\n            return;\n        }\n\n        if(!_isExcludedFromFees[to] && !_isExcludedFromFees[from]) {\n            require(amount <= maxTxAmount, 'amount is exceeding maxTxAmount');\n\n            if(automatedMarketMakerPairs[to]){\n        \t    require(amount <= maxSellTransactionAmount, \"Sell transfer amount exceeds the maxSellTransactionAmount.\");\n        \t}\n        }\n\n        if(!_isExcludedFromFees[to] && to != uniswapV2Pair){\n            require(balanceOf(to).add(amount) <= maxWalletBalance, 'Recipient balance is exceeding maxWalletBalance');\n        }\n\n\t\t    uint256 contractTokenBalance = balanceOf(address(this));\n        bool canSwap = contractTokenBalance >= swapTokensAtAmount;\n\n        if( canSwap &&\n            !swapping &&\n            !automatedMarketMakerPairs[from] &&\n            from != owner() &&\n            to != owner()\n        ) {\n            swapping = true;\n\n            uint256 marketingTokens = contractTokenBalance.mul(marketingFee).div(totalFees);\n            swapAndSendToFee(marketingTokens);\n\n            uint256 swapTokens = contractTokenBalance.mul(liquidityFee).div(totalFees);\n            swapAndLiquify(swapTokens);\n\n            uint256 sellTokens = balanceOf(address(this));\n            swapAndSendDividends(sellTokens);\n\n            swapping = false;\n        }\n\n\n        bool takeFee = !swapping;\n\n        // if any account belongs to _isExcludedFromFee account then remove the fee\n        if(_isExcludedFromFees[from] || _isExcludedFromFees[to]) {\n            takeFee = false;\n        }\n\n        if(takeFee) {\n        \tuint256 fees = amount.mul(totalFees).div(100);\n        \tif(automatedMarketMakerPairs[to]){\n        \t    fees += amount.mul(sellFeeIncreaseFactor).div(100);\n        \t}\n        \tamount = amount.sub(fees);\n\n            super._transfer(from, address(this), fees);\n        }\n\n        super._transfer(from, to, amount);\n\n        try dividendTracker.setBalance(payable(from), balanceOf(from)) {} catch {}\n        try dividendTracker.setBalance(payable(to), balanceOf(to)) {} catch {}\n\n        if(!swapping) {\n\t    \tuint256 gas = gasForProcessing;\n\n\t    \ttry dividendTracker.process(gas) returns (uint256 iterations, uint256 claims, uint256 lastProcessedIndex) {\n\t    \t\temit ProcessedDividendTracker(iterations, claims, lastProcessedIndex, true, gas, tx.origin);\n\t    \t}\n\t    \tcatch {\n\n\t    \t}\n        }\n    }\n\n    function swapAndSendToFee(uint256 tokens) private  {\n\n        swapTokensForEth(tokens);\n        _marketingWalletAddress.transfer(address(this).balance);\n    }\n\n    function swapAndLiquify(uint256 tokens) private {\n       // split the contract balance into halves\n        uint256 half = tokens.div(2);\n        uint256 otherHalf = tokens.sub(half);\n\n        // capture the contract's current ETH balance.\n        // this is so that we can capture exactly the amount of ETH that the\n        // swap creates, and not make the liquidity event include any ETH that\n        // has been manually sent to the contract\n        uint256 initialBalance = address(this).balance;\n\n        // swap tokens for ETH\n        swapTokensForEth(half); // <- this breaks the ETH -> HATE swap when swap+liquify is triggered\n\n        // how much ETH did we just swap into?\n        uint256 newBalance = address(this).balance.sub(initialBalance);\n\n        // add liquidity to uniswap\n        addLiquidity(otherHalf, newBalance);\n\n        emit SwapAndLiquify(half, newBalance, otherHalf);\n    }\n\n\n    function swapTokensForEth(uint256 tokenAmount) private {\n\n        // generate the uniswap pair path of token -> weth\n        address[] memory path = new address[](2);\n        path[0] = address(this);\n        path[1] = uniswapV2Router.WETH();\n\n        _approve(address(this), address(uniswapV2Router), tokenAmount);\n\n        // make the swap\n        uniswapV2Router.swapExactTokensForETHSupportingFeeOnTransferTokens(\n            tokenAmount,\n            0, // accept any amount of ETH\n            path,\n            address(this),\n            block.timestamp\n        );\n\n    }\n\n    function addLiquidity(uint256 tokenAmount, uint256 ethAmount) private {\n\n        // approve token transfer to cover all possible scenarios\n        _approve(address(this), address(uniswapV2Router), tokenAmount);\n\n        // add the liquidity\n        uniswapV2Router.addLiquidityETH{value: ethAmount}(\n            address(this),\n            tokenAmount,\n            0, // slippage is unavoidable\n            0, // slippage is unavoidable\n            address(0),\n            block.timestamp\n        );\n\n    }\n\n    function swapAndSendDividends(uint256 tokens) private {\n        swapTokensForEth(tokens);\n        uint256 dividends = address(this).balance;\n        (bool success,) = address(dividendTracker).call{value: dividends}(\"\");\n\n        if(success) {\n   \t \t\temit SendDividends(tokens, dividends);\n        }\n    }\n    \n}\n\n// DividendTracker Contract\ncontract BNBackDividendTracker is DividendPayingToken, Ownable {\n    using SafeMath for uint256;\n    using SafeMathInt for int256;\n    using IterableMapping for IterableMapping.Map;\n\n    IterableMapping.Map private tokenHoldersMap;\n    uint256 public lastProcessedIndex;\n\n    mapping (address => bool) public excludedFromDividends;\n\n    mapping (address => uint256) public lastClaimTimes;\n\n    uint256 public claimWait;\n    uint256 public immutable minimumTokenBalanceForDividends;\n\n    event ExcludeFromDividends(address indexed account);\n    event ClaimWaitUpdated(uint256 indexed newValue, uint256 indexed oldValue);\n\n    event Claim(address indexed account, uint256 amount, bool indexed automatic);\n\n    constructor() DividendPayingToken(\"BNBack_Dividend_Tracker\", \"BNBack_Dividend_Tracker\") {\n    \tclaimWait = 3600;\n        minimumTokenBalanceForDividends = 10000000000 * (10**18); //must hold 10000+ tokens\n    }\n\n    function _transfer(address, address, uint256) internal pure override {\n        require(false, \"BNBack_Dividend_Tracker: No transfers allowed\");\n    }\n\n    function withdrawDividend() public pure override {\n        require(false, \"BNBack_Dividend_Tracker: withdrawDividend disabled. Use the 'claim' function on the main BNBack contract.\");\n    }\n\n    function excludeFromDividends(address account) external onlyOwner {\n    \trequire(!excludedFromDividends[account]);\n    \texcludedFromDividends[account] = true;\n\n    \t_setBalance(account, 0);\n    \ttokenHoldersMap.remove(account);\n\n    \temit ExcludeFromDividends(account);\n    }\n\n    function updateClaimWait(uint256 newClaimWait) external onlyOwner {\n        require(newClaimWait >= 3600 && newClaimWait <= 86400, \"BNBack_Dividend_Tracker: claimWait must be updated to between 1 and 24 hours\");\n        require(newClaimWait != claimWait, \"BNBack_Dividend_Tracker: Cannot update claimWait to same value\");\n        emit ClaimWaitUpdated(newClaimWait, claimWait);\n        claimWait = newClaimWait;\n    }\n\n    function getLastProcessedIndex() external view returns(uint256) {\n    \treturn lastProcessedIndex;\n    }\n\n    function getNumberOfTokenHolders() external view returns(uint256) {\n        return tokenHoldersMap.keys.length;\n    }\n\n\n\n    function getAccount(address _account)\n        public view returns (\n            address account,\n            int256 index,\n            int256 iterationsUntilProcessed,\n            uint256 withdrawableDividends,\n            uint256 totalDividends,\n            uint256 lastClaimTime,\n            uint256 nextClaimTime,\n            uint256 secondsUntilAutoClaimAvailable) {\n        account = _account;\n\n        index = tokenHoldersMap.getIndexOfKey(account);\n\n        iterationsUntilProcessed = -1;\n\n        if(index >= 0) {\n            if(uint256(index) > lastProcessedIndex) {\n                iterationsUntilProcessed = index.sub(int256(lastProcessedIndex));\n            }\n            else {\n                uint256 processesUntilEndOfArray = tokenHoldersMap.keys.length > lastProcessedIndex ?\n                                                        tokenHoldersMap.keys.length.sub(lastProcessedIndex) :\n                                                        0;\n\n\n                iterationsUntilProcessed = index.add(int256(processesUntilEndOfArray));\n            }\n        }\n\n\n        withdrawableDividends = withdrawableDividendOf(account);\n        totalDividends = accumulativeDividendOf(account);\n\n        lastClaimTime = lastClaimTimes[account];\n\n        nextClaimTime = lastClaimTime > 0 ?\n                                    lastClaimTime.add(claimWait) :\n                                    0;\n\n        secondsUntilAutoClaimAvailable = nextClaimTime > block.timestamp ?\n                                                    nextClaimTime.sub(block.timestamp) :\n                                                    0;\n    }\n\n    function getAccountAtIndex(uint256 index)\n        public view returns (\n            address,\n            int256,\n            int256,\n            uint256,\n            uint256,\n            uint256,\n            uint256,\n            uint256) {\n    \tif(index >= tokenHoldersMap.size()) {\n            return (0x0000000000000000000000000000000000000000, -1, -1, 0, 0, 0, 0, 0);\n        }\n\n        address account = tokenHoldersMap.getKeyAtIndex(index);\n\n        return getAccount(account);\n    }\n\n    function canAutoClaim(uint256 lastClaimTime) private view returns (bool) {\n    \tif(lastClaimTime > block.timestamp)  {\n    \t\treturn false;\n    \t}\n\n    \treturn block.timestamp.sub(lastClaimTime) >= claimWait;\n    }\n\n    function setBalance(address payable account, uint256 newBalance) external onlyOwner {\n    \tif(excludedFromDividends[account]) {\n    \t\treturn;\n    \t}\n\n    \tif(newBalance >= minimumTokenBalanceForDividends) {\n            _setBalance(account, newBalance);\n    \t\ttokenHoldersMap.set(account, newBalance);\n    \t}\n    \telse {\n            _setBalance(account, 0);\n    \t\ttokenHoldersMap.remove(account);\n    \t}\n\n    \tprocessAccount(account, true);\n    }\n\n    function process(uint256 gas) public returns (uint256, uint256, uint256) {\n    \tuint256 numberOfTokenHolders = tokenHoldersMap.keys.length;\n\n    \tif(numberOfTokenHolders == 0) {\n    \t\treturn (0, 0, lastProcessedIndex);\n    \t}\n\n    \tuint256 _lastProcessedIndex = lastProcessedIndex;\n\n    \tuint256 gasUsed = 0;\n\n    \tuint256 gasLeft = gasleft();\n\n    \tuint256 iterations = 0;\n    \tuint256 claims = 0;\n\n    \twhile(gasUsed < gas && iterations < numberOfTokenHolders) {\n    \t\t_lastProcessedIndex++;\n\n    \t\tif(_lastProcessedIndex >= tokenHoldersMap.keys.length) {\n    \t\t\t_lastProcessedIndex = 0;\n    \t\t}\n\n    \t\taddress account = tokenHoldersMap.keys[_lastProcessedIndex];\n\n    \t\tif(canAutoClaim(lastClaimTimes[account])) {\n    \t\t\tif(processAccount(payable(account), true)) {\n    \t\t\t\tclaims++;\n    \t\t\t}\n    \t\t}\n\n    \t\titerations++;\n\n    \t\tuint256 newGasLeft = gasleft();\n\n    \t\tif(gasLeft > newGasLeft) {\n    \t\t\tgasUsed = gasUsed.add(gasLeft.sub(newGasLeft));\n    \t\t}\n\n    \t\tgasLeft = newGasLeft;\n    \t}\n\n    \tlastProcessedIndex = _lastProcessedIndex;\n\n    \treturn (iterations, claims, lastProcessedIndex);\n    }\n\n    function processAccount(address payable account, bool automatic) public onlyOwner returns (bool) {\n        uint256 amount = _withdrawDividendOfUser(account);\n\n    \tif(amount > 0) {\n    \t\tlastClaimTimes[account] = block.timestamp;\n            emit Claim(account, amount, automatic);\n    \t\treturn true;\n    \t}\n\n    \treturn false;\n    }\n}\n",
  "sourcePath": "/solidity-dev/Doge-Malone-v1-ERC20-DeFi/contracts/Tiki.sol",
  "compiler": {
    "name": "solc",
    "version": "0.8.7+commit.e28d00a7.Emscripten.clang"
  },
  "schemaVersion": "3.4.3",
  "updatedAt": "2021-08-13T23:55:27.574Z",
  "devdoc": {
    "kind": "dev",
    "methods": {
      "accumulativeDividendOf(address)": {
        "details": "accumulativeDividendOf(_owner) = withdrawableDividendOf(_owner) + withdrawnDividendOf(_owner) = (magnifiedDividendPerShare * balanceOf(_owner) + magnifiedDividendCorrections[_owner]) / magnitude",
        "params": {
          "_owner": "The address of a token holder."
        },
        "returns": {
          "_0": "The amount of dividend in wei that `_owner` has earned in total."
        }
      },
      "allowance(address,address)": {
        "details": "See {IERC20-allowance}."
      },
      "approve(address,uint256)": {
        "details": "See {IERC20-approve}. Requirements: - `spender` cannot be the zero address."
      },
      "balanceOf(address)": {
        "details": "See {IERC20-balanceOf}."
      },
      "decimals()": {
        "details": "Returns the number of decimals used to get its user representation. For example, if `decimals` equals `2`, a balance of `505` tokens should be displayed to a user as `5,05` (`505 / 10 ** 2`). Tokens usually opt for a value of 18, imitating the relationship between Ether and Wei. This is the value {ERC20} uses, unless this function is overridden; NOTE: This information is only used for _display_ purposes: it in no way affects any of the arithmetic of the contract, including {IERC20-balanceOf} and {IERC20-transfer}."
      },
      "decreaseAllowance(address,uint256)": {
        "details": "Atomically decreases the allowance granted to `spender` by the caller. This is an alternative to {approve} that can be used as a mitigation for problems described in {IERC20-approve}. Emits an {Approval} event indicating the updated allowance. Requirements: - `spender` cannot be the zero address. - `spender` must have allowance for the caller of at least `subtractedValue`."
      },
      "distributeDividends()": {
        "details": "It reverts if the total supply of tokens is 0. It emits the `DividendsDistributed` event if the amount of received ether is greater than 0. About undistributed ether:   In each distribution, there is a small amount of ether not distributed,     the magnified amount of which is     `(msg.value * magnitude) % totalSupply()`.   With a well-chosen `magnitude`, the amount of undistributed ether     (de-magnified) in a distribution can be less than 1 wei.   We can actually keep track of the undistributed ether in a distribution     and try to distribute it in the next distribution,     but keeping track of such data on-chain costs much more than     the saved ether, so we don't do that."
      },
      "dividendOf(address)": {
        "params": {
          "_owner": "The address of a token holder."
        },
        "returns": {
          "_0": "The amount of dividend in wei that `_owner` can withdraw."
        }
      },
      "increaseAllowance(address,uint256)": {
        "details": "Atomically increases the allowance granted to `spender` by the caller. This is an alternative to {approve} that can be used as a mitigation for problems described in {IERC20-approve}. Emits an {Approval} event indicating the updated allowance. Requirements: - `spender` cannot be the zero address."
      },
      "name()": {
        "details": "Returns the name of the token."
      },
      "owner()": {
        "details": "Returns the address of the current owner."
      },
      "renounceOwnership()": {
        "details": "Leaves the contract without owner. It will not be possible to call `onlyOwner` functions anymore. Can only be called by the current owner. NOTE: Renouncing ownership will leave the contract without an owner, thereby removing any functionality that is only available to the owner."
      },
      "symbol()": {
        "details": "Returns the symbol of the token, usually a shorter version of the name."
      },
      "totalSupply()": {
        "details": "See {IERC20-totalSupply}."
      },
      "transfer(address,uint256)": {
        "details": "See {IERC20-transfer}. Requirements: - `recipient` cannot be the zero address. - the caller must have a balance of at least `amount`."
      },
      "transferFrom(address,address,uint256)": {
        "details": "See {IERC20-transferFrom}. Emits an {Approval} event indicating the updated allowance. This is not required by the EIP. See the note at the beginning of {ERC20}. Requirements: - `sender` and `recipient` cannot be the zero address. - `sender` must have a balance of at least `amount`. - the caller must have allowance for ``sender``'s tokens of at least `amount`."
      },
      "transferOwnership(address)": {
        "details": "Transfers ownership of the contract to a new account (`newOwner`). Can only be called by the current owner."
      },
      "withdrawDividend()": {
        "details": "It emits a `DividendWithdrawn` event if the amount of withdrawn ether is greater than 0."
      },
      "withdrawableDividendOf(address)": {
        "params": {
          "_owner": "The address of a token holder."
        },
        "returns": {
          "_0": "The amount of dividend in wei that `_owner` can withdraw."
        }
      },
      "withdrawnDividendOf(address)": {
        "params": {
          "_owner": "The address of a token holder."
        },
        "returns": {
          "_0": "The amount of dividend in wei that `_owner` has withdrawn."
        }
      }
    },
    "version": 1
  },
  "userdoc": {
    "kind": "user",
    "methods": {
      "accumulativeDividendOf(address)": {
        "notice": "View the amount of dividend in wei that an address has earned in total."
      },
      "distributeDividends()": {
        "notice": "Distributes ether to token holders as dividends."
      },
      "dividendOf(address)": {
        "notice": "View the amount of dividend in wei that an address can withdraw."
      },
      "withdrawDividend()": {
        "notice": "Withdraws the ether distributed to the sender."
      },
      "withdrawableDividendOf(address)": {
        "notice": "View the amount of dividend in wei that an address can withdraw."
      },
      "withdrawnDividendOf(address)": {
        "notice": "View the amount of dividend in wei that an address has withdrawn."
      }
    },
    "version": 1
  }
}