{
  "contractName": "DividendPayingToken",
  "abi": [
    {
      "inputs": [
        {
          "internalType": "string",
          "name": "_name",
          "type": "string"
        },
        {
          "internalType": "string",
          "name": "_symbol",
          "type": "string"
        }
      ],
      "stateMutability": "nonpayable",
      "type": "constructor"
    },
    {
      "anonymous": false,
      "inputs": [
        {
          "indexed": true,
          "internalType": "address",
          "name": "owner",
          "type": "address"
        },
        {
          "indexed": true,
          "internalType": "address",
          "name": "spender",
          "type": "address"
        },
        {
          "indexed": false,
          "internalType": "uint256",
          "name": "value",
          "type": "uint256"
        }
      ],
      "name": "Approval",
      "type": "event"
    },
    {
      "anonymous": false,
      "inputs": [
        {
          "indexed": true,
          "internalType": "address",
          "name": "to",
          "type": "address"
        },
        {
          "indexed": false,
          "internalType": "uint256",
          "name": "weiAmount",
          "type": "uint256"
        }
      ],
      "name": "DividendWithdrawn",
      "type": "event"
    },
    {
      "anonymous": false,
      "inputs": [
        {
          "indexed": true,
          "internalType": "address",
          "name": "from",
          "type": "address"
        },
        {
          "indexed": false,
          "internalType": "uint256",
          "name": "weiAmount",
          "type": "uint256"
        }
      ],
      "name": "DividendsDistributed",
      "type": "event"
    },
    {
      "anonymous": false,
      "inputs": [
        {
          "indexed": true,
          "internalType": "address",
          "name": "from",
          "type": "address"
        },
        {
          "indexed": true,
          "internalType": "address",
          "name": "to",
          "type": "address"
        },
        {
          "indexed": false,
          "internalType": "uint256",
          "name": "value",
          "type": "uint256"
        }
      ],
      "name": "Transfer",
      "type": "event"
    },
    {
      "inputs": [
        {
          "internalType": "address",
          "name": "owner",
          "type": "address"
        },
        {
          "internalType": "address",
          "name": "spender",
          "type": "address"
        }
      ],
      "name": "allowance",
      "outputs": [
        {
          "internalType": "uint256",
          "name": "",
          "type": "uint256"
        }
      ],
      "stateMutability": "view",
      "type": "function"
    },
    {
      "inputs": [
        {
          "internalType": "address",
          "name": "spender",
          "type": "address"
        },
        {
          "internalType": "uint256",
          "name": "amount",
          "type": "uint256"
        }
      ],
      "name": "approve",
      "outputs": [
        {
          "internalType": "bool",
          "name": "",
          "type": "bool"
        }
      ],
      "stateMutability": "nonpayable",
      "type": "function"
    },
    {
      "inputs": [
        {
          "internalType": "address",
          "name": "account",
          "type": "address"
        }
      ],
      "name": "balanceOf",
      "outputs": [
        {
          "internalType": "uint256",
          "name": "",
          "type": "uint256"
        }
      ],
      "stateMutability": "view",
      "type": "function"
    },
    {
      "inputs": [],
      "name": "decimals",
      "outputs": [
        {
          "internalType": "uint8",
          "name": "",
          "type": "uint8"
        }
      ],
      "stateMutability": "view",
      "type": "function"
    },
    {
      "inputs": [
        {
          "internalType": "address",
          "name": "spender",
          "type": "address"
        },
        {
          "internalType": "uint256",
          "name": "subtractedValue",
          "type": "uint256"
        }
      ],
      "name": "decreaseAllowance",
      "outputs": [
        {
          "internalType": "bool",
          "name": "",
          "type": "bool"
        }
      ],
      "stateMutability": "nonpayable",
      "type": "function"
    },
    {
      "inputs": [
        {
          "internalType": "address",
          "name": "spender",
          "type": "address"
        },
        {
          "internalType": "uint256",
          "name": "addedValue",
          "type": "uint256"
        }
      ],
      "name": "increaseAllowance",
      "outputs": [
        {
          "internalType": "bool",
          "name": "",
          "type": "bool"
        }
      ],
      "stateMutability": "nonpayable",
      "type": "function"
    },
    {
      "inputs": [],
      "name": "name",
      "outputs": [
        {
          "internalType": "string",
          "name": "",
          "type": "string"
        }
      ],
      "stateMutability": "view",
      "type": "function"
    },
    {
      "inputs": [],
      "name": "symbol",
      "outputs": [
        {
          "internalType": "string",
          "name": "",
          "type": "string"
        }
      ],
      "stateMutability": "view",
      "type": "function"
    },
    {
      "inputs": [],
      "name": "totalDividendsDistributed",
      "outputs": [
        {
          "internalType": "uint256",
          "name": "",
          "type": "uint256"
        }
      ],
      "stateMutability": "view",
      "type": "function"
    },
    {
      "inputs": [],
      "name": "totalSupply",
      "outputs": [
        {
          "internalType": "uint256",
          "name": "",
          "type": "uint256"
        }
      ],
      "stateMutability": "view",
      "type": "function"
    },
    {
      "inputs": [
        {
          "internalType": "address",
          "name": "recipient",
          "type": "address"
        },
        {
          "internalType": "uint256",
          "name": "amount",
          "type": "uint256"
        }
      ],
      "name": "transfer",
      "outputs": [
        {
          "internalType": "bool",
          "name": "",
          "type": "bool"
        }
      ],
      "stateMutability": "nonpayable",
      "type": "function"
    },
    {
      "inputs": [
        {
          "internalType": "address",
          "name": "sender",
          "type": "address"
        },
        {
          "internalType": "address",
          "name": "recipient",
          "type": "address"
        },
        {
          "internalType": "uint256",
          "name": "amount",
          "type": "uint256"
        }
      ],
      "name": "transferFrom",
      "outputs": [
        {
          "internalType": "bool",
          "name": "",
          "type": "bool"
        }
      ],
      "stateMutability": "nonpayable",
      "type": "function"
    },
    {
      "stateMutability": "payable",
      "type": "receive"
    },
    {
      "inputs": [],
      "name": "distributeDividends",
      "outputs": [],
      "stateMutability": "payable",
      "type": "function"
    },
    {
      "inputs": [],
      "name": "withdrawDividend",
      "outputs": [],
      "stateMutability": "nonpayable",
      "type": "function"
    },
    {
      "inputs": [
        {
          "internalType": "address",
          "name": "_owner",
          "type": "address"
        }
      ],
      "name": "dividendOf",
      "outputs": [
        {
          "internalType": "uint256",
          "name": "",
          "type": "uint256"
        }
      ],
      "stateMutability": "view",
      "type": "function"
    },
    {
      "inputs": [
        {
          "internalType": "address",
          "name": "_owner",
          "type": "address"
        }
      ],
      "name": "withdrawableDividendOf",
      "outputs": [
        {
          "internalType": "uint256",
          "name": "",
          "type": "uint256"
        }
      ],
      "stateMutability": "view",
      "type": "function"
    },
    {
      "inputs": [
        {
          "internalType": "address",
          "name": "_owner",
          "type": "address"
        }
      ],
      "name": "withdrawnDividendOf",
      "outputs": [
        {
          "internalType": "uint256",
          "name": "",
          "type": "uint256"
        }
      ],
      "stateMutability": "view",
      "type": "function"
    },
    {
      "inputs": [
        {
          "internalType": "address",
          "name": "_owner",
          "type": "address"
        }
      ],
      "name": "accumulativeDividendOf",
      "outputs": [
        {
          "internalType": "uint256",
          "name": "",
          "type": "uint256"
        }
      ],
      "stateMutability": "view",
      "type": "function"
    }
  ],
  "bytecode": "0x60806040523480156200001157600080fd5b5060405162000fca38038062000fca8339810160408190526200003491620001cb565b8151829082906200004d9060039060208501906200006e565b508051620000639060049060208401906200006e565b505050505062000288565b8280546200007c9062000235565b90600052602060002090601f016020900481019282620000a05760008555620000eb565b82601f10620000bb57805160ff1916838001178555620000eb565b82800160010185558215620000eb579182015b82811115620000eb578251825591602001919060010190620000ce565b50620000f9929150620000fd565b5090565b5b80821115620000f95760008155600101620000fe565b600082601f8301126200012657600080fd5b81516001600160401b038082111562000143576200014362000272565b604051601f8301601f19908116603f011681019082821181831017156200016e576200016e62000272565b816040528381526020925086838588010111156200018b57600080fd5b600091505b83821015620001af578582018301518183018401529082019062000190565b83821115620001c15760008385830101525b9695505050505050565b60008060408385031215620001df57600080fd5b82516001600160401b0380821115620001f757600080fd5b620002058683870162000114565b935060208501519150808211156200021c57600080fd5b506200022b8582860162000114565b9150509250929050565b600181811c908216806200024a57607f821691505b602082108114156200026c57634e487b7160e01b600052602260045260246000fd5b50919050565b634e487b7160e01b600052604160045260246000fd5b610d3280620002986000396000f3fe60806040526004361061012d5760003560e01c806370a08231116100a5578063a457c2d711610074578063a9059cbb11610059578063a9059cbb14610315578063aafd847a14610335578063dd62ed3e1461036b57600080fd5b8063a457c2d7146102d5578063a8b9d240146102f557600080fd5b806370a082311461025457806385a6b3ae1461028a57806391b89fba146102a057806395d89b41146102c057600080fd5b806323b872dd116100fc578063313ce567116100e1578063313ce56714610203578063395093511461021f5780636a4740021461023f57600080fd5b806323b872dd146101c357806327ce0147146101e357600080fd5b806303c833021461014157806306fdde0314610149578063095ea7b31461017457806318160ddd146101a457600080fd5b3661013c5761013a6103b1565b005b600080fd5b61013a6103b1565b34801561015557600080fd5b5061015e610451565b60405161016b9190610b72565b60405180910390f35b34801561018057600080fd5b5061019461018f366004610b48565b6104e3565b604051901515815260200161016b565b3480156101b057600080fd5b506002545b60405190815260200161016b565b3480156101cf57600080fd5b506101946101de366004610b0c565b6104f9565b3480156101ef57600080fd5b506101b56101fe366004610abe565b6105bd565b34801561020f57600080fd5b506040516012815260200161016b565b34801561022b57600080fd5b5061019461023a366004610b48565b61062c565b34801561024b57600080fd5b5061013a610668565b34801561026057600080fd5b506101b561026f366004610abe565b6001600160a01b031660009081526020819052604090205490565b34801561029657600080fd5b506101b560085481565b3480156102ac57600080fd5b506101b56102bb366004610abe565b610674565b3480156102cc57600080fd5b5061015e61067f565b3480156102e157600080fd5b506101946102f0366004610b48565b61068e565b34801561030157600080fd5b506101b5610310366004610abe565b61073f565b34801561032157600080fd5b50610194610330366004610b48565b61076b565b34801561034157600080fd5b506101b5610350366004610abe565b6001600160a01b031660009081526007602052604090205490565b34801561037757600080fd5b506101b5610386366004610ad9565b6001600160a01b03918216600090815260016020908152604080832093909416825291909152205490565b60006103bc60025490565b116103c657600080fd5b341561044f576104066103d860025490565b6103f334700100000000000000000000000000000000610778565b6103fd9190610c53565b6005549061078b565b60055560405134815233907fa493a9229478c3fcd73f66d2cdeb7f94fd0f341da924d1054236d784541165119060200160405180910390a260085461044b903461078b565b6008555b565b60606003805461046090610cab565b80601f016020809104026020016040519081016040528092919081815260200182805461048c90610cab565b80156104d95780601f106104ae576101008083540402835291602001916104d9565b820191906000526020600020905b8154815290600101906020018083116104bc57829003601f168201915b5050505050905090565b60006104f0338484610797565b50600192915050565b6000610506848484600080fd5b6001600160a01b0384166000908152600160209081526040808320338452909152902054828110156105a55760405162461bcd60e51b815260206004820152602860248201527f45524332303a207472616e7366657220616d6f756e742065786365656473206160448201527f6c6c6f77616e636500000000000000000000000000000000000000000000000060648201526084015b60405180910390fd5b6105b28533858403610797565b506001949350505050565b6001600160a01b038116600090815260066020908152604080832054918390528220546005547001000000000000000000000000000000009261061c92610617926106119161060c9190610778565b6108ef565b906108ff565b61093d565b6106269190610c53565b92915050565b3360008181526001602090815260408083206001600160a01b038716845290915281205490916104f0918590610663908690610c3b565b610797565b61067133610950565b50565b60006106268261073f565b60606004805461046090610cab565b3360009081526001602090815260408083206001600160a01b0386168452909152812054828110156107285760405162461bcd60e51b815260206004820152602560248201527f45524332303a2064656372656173656420616c6c6f77616e63652062656c6f7760448201527f207a65726f000000000000000000000000000000000000000000000000000000606482015260840161059c565b6107353385858403610797565b5060019392505050565b6001600160a01b03811660009081526007602052604081205461062690610765846105bd565b90610a96565b60006104f0338484600080fd5b60006107848284610c75565b9392505050565b60006107848284610c3b565b6001600160a01b0383166108125760405162461bcd60e51b8152602060048201526024808201527f45524332303a20617070726f76652066726f6d20746865207a65726f2061646460448201527f7265737300000000000000000000000000000000000000000000000000000000606482015260840161059c565b6001600160a01b03821661088e5760405162461bcd60e51b815260206004820152602260248201527f45524332303a20617070726f766520746f20746865207a65726f20616464726560448201527f7373000000000000000000000000000000000000000000000000000000000000606482015260840161059c565b6001600160a01b0383811660008181526001602090815260408083209487168084529482529182902085905590518481527f8c5be1e5ebec7d5bd14f71427d1e84f3dd0314c0f7b2291e5b200ac8c7c3b925910160405180910390a3505050565b6000818181121561062657600080fd5b60008061090c8385610bc7565b90506000831215801561091f5750838112155b80610934575060008312801561093457508381125b61078457600080fd5b60008082121561094c57600080fd5b5090565b60008061095c8361073f565b90508015610a8d576001600160a01b038316600090815260076020526040902054610987908261078b565b6001600160a01b038416600081815260076020526040908190209290925590517fee503bee2bb6a87e57bc57db795f98137327401a0e7b7ce42e37926cc1a9ca4d906109d69084815260200190565b60405180910390a26000836001600160a01b031682610bb890604051600060405180830381858888f193505050503d8060008114610a30576040519150601f19603f3d011682016040523d82523d6000602084013e610a35565b606091505b5050905080610a86576001600160a01b038416600090815260076020526040902054610a619083610a96565b6001600160a01b03909416600090815260076020526040812094909455509192915050565b5092915050565b50600092915050565b60006107848284610c94565b80356001600160a01b0381168114610ab957600080fd5b919050565b600060208284031215610ad057600080fd5b61078482610aa2565b60008060408385031215610aec57600080fd5b610af583610aa2565b9150610b0360208401610aa2565b90509250929050565b600080600060608486031215610b2157600080fd5b610b2a84610aa2565b9250610b3860208501610aa2565b9150604084013590509250925092565b60008060408385031215610b5b57600080fd5b610b6483610aa2565b946020939093013593505050565b600060208083528351808285015260005b81811015610b9f57858101830151858201604001528201610b83565b81811115610bb1576000604083870101525b50601f01601f1916929092016040019392505050565b6000808212827f7fffffffffffffffffffffffffffffffffffffffffffffffffffffffffffffff03841381151615610c0157610c01610ce6565b827f8000000000000000000000000000000000000000000000000000000000000000038412811615610c3557610c35610ce6565b50500190565b60008219821115610c4e57610c4e610ce6565b500190565b600082610c7057634e487b7160e01b600052601260045260246000fd5b500490565b6000816000190483118215151615610c8f57610c8f610ce6565b500290565b600082821015610ca657610ca6610ce6565b500390565b600181811c90821680610cbf57607f821691505b60208210811415610ce057634e487b7160e01b600052602260045260246000fd5b50919050565b634e487b7160e01b600052601160045260246000fdfea264697066735822122041e8c3b42d0115d9cadc7ee6e3e91a47429b50244dec9219981efc69361e67e464736f6c63430008070033",
  "immutableReferences": {},
  "source": "// SPDX-License-Identifier: MIT\n\npragma solidity ^0.8.7;\n\nimport \"@openzeppelin/contracts/token/ERC20/ERC20.sol\";\nimport \"@openzeppelin/contracts/utils/math/SafeMath.sol\";\nimport \"./SafeMathUint.sol\";\nimport \"./SafeMathInt.sol\";\nimport \"./DividendPayingTokenInterface.sol\";\nimport \"./DividendPayingTokenOptionalInterface.sol\";\n\n\n/// @title Dividend-Paying Token\n/// @author Roger Wu (https://github.com/roger-wu)\n/// @dev A mintable ERC20 token that allows anyone to pay and distribute ether\n///  to token holders as dividends and allows token holders to withdraw their dividends.\n///  Reference: the source code of PoWH3D: https://etherscan.io/address/0xB3775fB83F7D12A36E0475aBdD1FCA35c091efBe#code\ncontract DividendPayingToken is ERC20, DividendPayingTokenInterface, DividendPayingTokenOptionalInterface {\n  using SafeMath for uint256;\n  using SafeMathUint for uint256;\n  using SafeMathInt for int256;\n\n  // With `magnitude`, we can properly distribute dividends even if the amount of received ether is small.\n  // For more discussion about choosing the value of `magnitude`,\n  //  see https://github.com/ethereum/EIPs/issues/1726#issuecomment-472352728\n  uint256 constant internal magnitude = 2**128;\n\n  uint256 internal magnifiedDividendPerShare;\n\n  // About dividendCorrection:\n  // If the token balance of a `_user` is never changed, the dividend of `_user` can be computed with:\n  //   `dividendOf(_user) = dividendPerShare * balanceOf(_user)`.\n  // When `balanceOf(_user)` is changed (via minting/burning/transferring tokens),\n  //   `dividendOf(_user)` should not be changed,\n  //   but the computed value of `dividendPerShare * balanceOf(_user)` is changed.\n  // To keep the `dividendOf(_user)` unchanged, we add a correction term:\n  //   `dividendOf(_user) = dividendPerShare * balanceOf(_user) + dividendCorrectionOf(_user)`,\n  //   where `dividendCorrectionOf(_user)` is updated whenever `balanceOf(_user)` is changed:\n  //   `dividendCorrectionOf(_user) = dividendPerShare * (old balanceOf(_user)) - (new balanceOf(_user))`.\n  // So now `dividendOf(_user)` returns the same value before and after `balanceOf(_user)` is changed.\n  mapping(address => int256) internal magnifiedDividendCorrections;\n  mapping(address => uint256) internal withdrawnDividends;\n\n  uint256 public totalDividendsDistributed;\n\n  constructor(string memory _name, string memory _symbol) ERC20(_name, _symbol) {\n\n  }\n\n  /// @dev Distributes dividends whenever ether is paid to this contract.\n  receive() external payable {\n    distributeDividends();\n  }\n\n  /// @notice Distributes ether to token holders as dividends.\n  /// @dev It reverts if the total supply of tokens is 0.\n  /// It emits the `DividendsDistributed` event if the amount of received ether is greater than 0.\n  /// About undistributed ether:\n  ///   In each distribution, there is a small amount of ether not distributed,\n  ///     the magnified amount of which is\n  ///     `(msg.value * magnitude) % totalSupply()`.\n  ///   With a well-chosen `magnitude`, the amount of undistributed ether\n  ///     (de-magnified) in a distribution can be less than 1 wei.\n  ///   We can actually keep track of the undistributed ether in a distribution\n  ///     and try to distribute it in the next distribution,\n  ///     but keeping track of such data on-chain costs much more than\n  ///     the saved ether, so we don't do that.\n  function distributeDividends() public override payable {\n    require(totalSupply() > 0);\n\n    if (msg.value > 0) {\n      magnifiedDividendPerShare = magnifiedDividendPerShare.add(\n        (msg.value).mul(magnitude) / totalSupply()\n      );\n      emit DividendsDistributed(msg.sender, msg.value);\n\n      totalDividendsDistributed = totalDividendsDistributed.add(msg.value);\n    }\n  }\n\n  /// @notice Withdraws the ether distributed to the sender.\n  /// @dev It emits a `DividendWithdrawn` event if the amount of withdrawn ether is greater than 0.\n  function withdrawDividend() public virtual override {\n    _withdrawDividendOfUser(payable(msg.sender));\n  }\n\n  /// @notice Withdraws the ether distributed to the sender.\n  /// @dev It emits a `DividendWithdrawn` event if the amount of withdrawn ether is greater than 0.\n  function _withdrawDividendOfUser(address payable user) internal returns (uint256) {\n    uint256 _withdrawableDividend = withdrawableDividendOf(user);\n    if (_withdrawableDividend > 0) {\n      withdrawnDividends[user] = withdrawnDividends[user].add(_withdrawableDividend);\n      emit DividendWithdrawn(user, _withdrawableDividend);\n      (bool success,) = user.call{value: _withdrawableDividend, gas: 3000}(\"\");\n\n      if(!success) {\n        withdrawnDividends[user] = withdrawnDividends[user].sub(_withdrawableDividend);\n        return 0;\n      }\n\n      return _withdrawableDividend;\n    }\n\n    return 0;\n  }\n\n\n  /// @notice View the amount of dividend in wei that an address can withdraw.\n  /// @param _owner The address of a token holder.\n  /// @return The amount of dividend in wei that `_owner` can withdraw.\n  function dividendOf(address _owner) public view override returns(uint256) {\n    return withdrawableDividendOf(_owner);\n  }\n\n  /// @notice View the amount of dividend in wei that an address can withdraw.\n  /// @param _owner The address of a token holder.\n  /// @return The amount of dividend in wei that `_owner` can withdraw.\n  function withdrawableDividendOf(address _owner) public view override returns(uint256) {\n    return accumulativeDividendOf(_owner).sub(withdrawnDividends[_owner]);\n  }\n\n  /// @notice View the amount of dividend in wei that an address has withdrawn.\n  /// @param _owner The address of a token holder.\n  /// @return The amount of dividend in wei that `_owner` has withdrawn.\n  function withdrawnDividendOf(address _owner) public view override returns(uint256) {\n    return withdrawnDividends[_owner];\n  }\n\n\n  /// @notice View the amount of dividend in wei that an address has earned in total.\n  /// @dev accumulativeDividendOf(_owner) = withdrawableDividendOf(_owner) + withdrawnDividendOf(_owner)\n  /// = (magnifiedDividendPerShare * balanceOf(_owner) + magnifiedDividendCorrections[_owner]) / magnitude\n  /// @param _owner The address of a token holder.\n  /// @return The amount of dividend in wei that `_owner` has earned in total.\n  function accumulativeDividendOf(address _owner) public view override returns(uint256) {\n    return magnifiedDividendPerShare.mul(balanceOf(_owner)).toInt256Safe()\n      .add(magnifiedDividendCorrections[_owner]).toUint256Safe() / magnitude;\n  }\n\n  /// @dev Internal function that transfer tokens from one address to another.\n  /// Update magnifiedDividendCorrections to keep dividends unchanged.\n  /// @param from The address to transfer from.\n  /// @param to The address to transfer to.\n  /// @param value The amount to be transferred.\n  function _transfer(address from, address to, uint256 value) internal virtual override {\n    require(false);\n\n    int256 _magCorrection = magnifiedDividendPerShare.mul(value).toInt256Safe();\n    magnifiedDividendCorrections[from] = magnifiedDividendCorrections[from].add(_magCorrection);\n    magnifiedDividendCorrections[to] = magnifiedDividendCorrections[to].sub(_magCorrection);\n  }\n\n  /// @dev Internal function that mints tokens to an account.\n  /// Update magnifiedDividendCorrections to keep dividends unchanged.\n  /// @param account The account that will receive the created tokens.\n  /// @param value The amount that will be created.\n  function _mint(address account, uint256 value) internal override {\n    super._mint(account, value);\n\n    magnifiedDividendCorrections[account] = magnifiedDividendCorrections[account]\n      .sub( (magnifiedDividendPerShare.mul(value)).toInt256Safe() );\n  }\n\n  /// @dev Internal function that burns an amount of the token of a given account.\n  /// Update magnifiedDividendCorrections to keep dividends unchanged.\n  /// @param account The account whose tokens will be burnt.\n  /// @param value The amount that will be burnt.\n  function _burn(address account, uint256 value) internal override {\n    super._burn(account, value);\n\n    magnifiedDividendCorrections[account] = magnifiedDividendCorrections[account]\n      .add( (magnifiedDividendPerShare.mul(value)).toInt256Safe() );\n  }\n\n  function _setBalance(address account, uint256 newBalance) internal {\n    uint256 currentBalance = balanceOf(account);\n\n    if(newBalance > currentBalance) {\n      uint256 mintAmount = newBalance.sub(currentBalance);\n      _mint(account, mintAmount);\n    } else if(newBalance < currentBalance) {\n      uint256 burnAmount = currentBalance.sub(newBalance);\n      _burn(account, burnAmount);\n    }\n  }\n}\n",
  "sourcePath": "/solidity-dev/Doge-Malone-v1-ERC20-DeFi/contracts/DividendPayingToken.sol",
  "compiler": {
    "name": "solc",
    "version": "0.8.7+commit.e28d00a7.Emscripten.clang"
  },
  "schemaVersion": "3.4.3",
  "updatedAt": "2021-08-14T02:40:00.723Z",
  "devdoc": {
    "author": "Roger Wu (https://github.com/roger-wu)",
    "details": "A mintable ERC20 token that allows anyone to pay and distribute ether  to token holders as dividends and allows token holders to withdraw their dividends.  Reference: the source code of PoWH3D: https://etherscan.io/address/0xB3775fB83F7D12A36E0475aBdD1FCA35c091efBe#code",
    "kind": "dev",
    "methods": {
      "accumulativeDividendOf(address)": {
        "details": "accumulativeDividendOf(_owner) = withdrawableDividendOf(_owner) + withdrawnDividendOf(_owner) = (magnifiedDividendPerShare * balanceOf(_owner) + magnifiedDividendCorrections[_owner]) / magnitude",
        "params": {
          "_owner": "The address of a token holder."
        },
        "returns": {
          "_0": "The amount of dividend in wei that `_owner` has earned in total."
        }
      },
      "allowance(address,address)": {
        "details": "See {IERC20-allowance}."
      },
      "approve(address,uint256)": {
        "details": "See {IERC20-approve}. Requirements: - `spender` cannot be the zero address."
      },
      "balanceOf(address)": {
        "details": "See {IERC20-balanceOf}."
      },
      "decimals()": {
        "details": "Returns the number of decimals used to get its user representation. For example, if `decimals` equals `2`, a balance of `505` tokens should be displayed to a user as `5,05` (`505 / 10 ** 2`). Tokens usually opt for a value of 18, imitating the relationship between Ether and Wei. This is the value {ERC20} uses, unless this function is overridden; NOTE: This information is only used for _display_ purposes: it in no way affects any of the arithmetic of the contract, including {IERC20-balanceOf} and {IERC20-transfer}."
      },
      "decreaseAllowance(address,uint256)": {
        "details": "Atomically decreases the allowance granted to `spender` by the caller. This is an alternative to {approve} that can be used as a mitigation for problems described in {IERC20-approve}. Emits an {Approval} event indicating the updated allowance. Requirements: - `spender` cannot be the zero address. - `spender` must have allowance for the caller of at least `subtractedValue`."
      },
      "distributeDividends()": {
        "details": "It reverts if the total supply of tokens is 0. It emits the `DividendsDistributed` event if the amount of received ether is greater than 0. About undistributed ether:   In each distribution, there is a small amount of ether not distributed,     the magnified amount of which is     `(msg.value * magnitude) % totalSupply()`.   With a well-chosen `magnitude`, the amount of undistributed ether     (de-magnified) in a distribution can be less than 1 wei.   We can actually keep track of the undistributed ether in a distribution     and try to distribute it in the next distribution,     but keeping track of such data on-chain costs much more than     the saved ether, so we don't do that."
      },
      "dividendOf(address)": {
        "params": {
          "_owner": "The address of a token holder."
        },
        "returns": {
          "_0": "The amount of dividend in wei that `_owner` can withdraw."
        }
      },
      "increaseAllowance(address,uint256)": {
        "details": "Atomically increases the allowance granted to `spender` by the caller. This is an alternative to {approve} that can be used as a mitigation for problems described in {IERC20-approve}. Emits an {Approval} event indicating the updated allowance. Requirements: - `spender` cannot be the zero address."
      },
      "name()": {
        "details": "Returns the name of the token."
      },
      "symbol()": {
        "details": "Returns the symbol of the token, usually a shorter version of the name."
      },
      "totalSupply()": {
        "details": "See {IERC20-totalSupply}."
      },
      "transfer(address,uint256)": {
        "details": "See {IERC20-transfer}. Requirements: - `recipient` cannot be the zero address. - the caller must have a balance of at least `amount`."
      },
      "transferFrom(address,address,uint256)": {
        "details": "See {IERC20-transferFrom}. Emits an {Approval} event indicating the updated allowance. This is not required by the EIP. See the note at the beginning of {ERC20}. Requirements: - `sender` and `recipient` cannot be the zero address. - `sender` must have a balance of at least `amount`. - the caller must have allowance for ``sender``'s tokens of at least `amount`."
      },
      "withdrawDividend()": {
        "details": "It emits a `DividendWithdrawn` event if the amount of withdrawn ether is greater than 0."
      },
      "withdrawableDividendOf(address)": {
        "params": {
          "_owner": "The address of a token holder."
        },
        "returns": {
          "_0": "The amount of dividend in wei that `_owner` can withdraw."
        }
      },
      "withdrawnDividendOf(address)": {
        "params": {
          "_owner": "The address of a token holder."
        },
        "returns": {
          "_0": "The amount of dividend in wei that `_owner` has withdrawn."
        }
      }
    },
    "title": "Dividend-Paying Token",
    "version": 1
  },
  "userdoc": {
    "kind": "user",
    "methods": {
      "accumulativeDividendOf(address)": {
        "notice": "View the amount of dividend in wei that an address has earned in total."
      },
      "distributeDividends()": {
        "notice": "Distributes ether to token holders as dividends."
      },
      "dividendOf(address)": {
        "notice": "View the amount of dividend in wei that an address can withdraw."
      },
      "withdrawDividend()": {
        "notice": "Withdraws the ether distributed to the sender."
      },
      "withdrawableDividendOf(address)": {
        "notice": "View the amount of dividend in wei that an address can withdraw."
      },
      "withdrawnDividendOf(address)": {
        "notice": "View the amount of dividend in wei that an address has withdrawn."
      }
    },
    "version": 1
  }
}