{
  "contractName": "DividendPayingToken",
  "abi": [
    {
      "inputs": [
        {
          "internalType": "string",
          "name": "_name",
          "type": "string"
        },
        {
          "internalType": "string",
          "name": "_symbol",
          "type": "string"
        }
      ],
      "stateMutability": "nonpayable",
      "type": "constructor"
    },
    {
      "anonymous": false,
      "inputs": [
        {
          "indexed": true,
          "internalType": "address",
          "name": "owner",
          "type": "address"
        },
        {
          "indexed": true,
          "internalType": "address",
          "name": "spender",
          "type": "address"
        },
        {
          "indexed": false,
          "internalType": "uint256",
          "name": "value",
          "type": "uint256"
        }
      ],
      "name": "Approval",
      "type": "event"
    },
    {
      "anonymous": false,
      "inputs": [
        {
          "indexed": true,
          "internalType": "address",
          "name": "to",
          "type": "address"
        },
        {
          "indexed": false,
          "internalType": "uint256",
          "name": "weiAmount",
          "type": "uint256"
        }
      ],
      "name": "DividendWithdrawn",
      "type": "event"
    },
    {
      "anonymous": false,
      "inputs": [
        {
          "indexed": true,
          "internalType": "address",
          "name": "from",
          "type": "address"
        },
        {
          "indexed": false,
          "internalType": "uint256",
          "name": "weiAmount",
          "type": "uint256"
        }
      ],
      "name": "DividendsDistributed",
      "type": "event"
    },
    {
      "anonymous": false,
      "inputs": [
        {
          "indexed": true,
          "internalType": "address",
          "name": "from",
          "type": "address"
        },
        {
          "indexed": true,
          "internalType": "address",
          "name": "to",
          "type": "address"
        },
        {
          "indexed": false,
          "internalType": "uint256",
          "name": "value",
          "type": "uint256"
        }
      ],
      "name": "Transfer",
      "type": "event"
    },
    {
      "inputs": [
        {
          "internalType": "address",
          "name": "owner",
          "type": "address"
        },
        {
          "internalType": "address",
          "name": "spender",
          "type": "address"
        }
      ],
      "name": "allowance",
      "outputs": [
        {
          "internalType": "uint256",
          "name": "",
          "type": "uint256"
        }
      ],
      "stateMutability": "view",
      "type": "function"
    },
    {
      "inputs": [
        {
          "internalType": "address",
          "name": "spender",
          "type": "address"
        },
        {
          "internalType": "uint256",
          "name": "amount",
          "type": "uint256"
        }
      ],
      "name": "approve",
      "outputs": [
        {
          "internalType": "bool",
          "name": "",
          "type": "bool"
        }
      ],
      "stateMutability": "nonpayable",
      "type": "function"
    },
    {
      "inputs": [
        {
          "internalType": "address",
          "name": "account",
          "type": "address"
        }
      ],
      "name": "balanceOf",
      "outputs": [
        {
          "internalType": "uint256",
          "name": "",
          "type": "uint256"
        }
      ],
      "stateMutability": "view",
      "type": "function"
    },
    {
      "inputs": [],
      "name": "decimals",
      "outputs": [
        {
          "internalType": "uint8",
          "name": "",
          "type": "uint8"
        }
      ],
      "stateMutability": "view",
      "type": "function"
    },
    {
      "inputs": [
        {
          "internalType": "address",
          "name": "spender",
          "type": "address"
        },
        {
          "internalType": "uint256",
          "name": "subtractedValue",
          "type": "uint256"
        }
      ],
      "name": "decreaseAllowance",
      "outputs": [
        {
          "internalType": "bool",
          "name": "",
          "type": "bool"
        }
      ],
      "stateMutability": "nonpayable",
      "type": "function"
    },
    {
      "inputs": [
        {
          "internalType": "address",
          "name": "spender",
          "type": "address"
        },
        {
          "internalType": "uint256",
          "name": "addedValue",
          "type": "uint256"
        }
      ],
      "name": "increaseAllowance",
      "outputs": [
        {
          "internalType": "bool",
          "name": "",
          "type": "bool"
        }
      ],
      "stateMutability": "nonpayable",
      "type": "function"
    },
    {
      "inputs": [],
      "name": "name",
      "outputs": [
        {
          "internalType": "string",
          "name": "",
          "type": "string"
        }
      ],
      "stateMutability": "view",
      "type": "function"
    },
    {
      "inputs": [],
      "name": "symbol",
      "outputs": [
        {
          "internalType": "string",
          "name": "",
          "type": "string"
        }
      ],
      "stateMutability": "view",
      "type": "function"
    },
    {
      "inputs": [],
      "name": "totalDividendsDistributed",
      "outputs": [
        {
          "internalType": "uint256",
          "name": "",
          "type": "uint256"
        }
      ],
      "stateMutability": "view",
      "type": "function"
    },
    {
      "inputs": [],
      "name": "totalSupply",
      "outputs": [
        {
          "internalType": "uint256",
          "name": "",
          "type": "uint256"
        }
      ],
      "stateMutability": "view",
      "type": "function"
    },
    {
      "inputs": [
        {
          "internalType": "address",
          "name": "recipient",
          "type": "address"
        },
        {
          "internalType": "uint256",
          "name": "amount",
          "type": "uint256"
        }
      ],
      "name": "transfer",
      "outputs": [
        {
          "internalType": "bool",
          "name": "",
          "type": "bool"
        }
      ],
      "stateMutability": "nonpayable",
      "type": "function"
    },
    {
      "inputs": [
        {
          "internalType": "address",
          "name": "sender",
          "type": "address"
        },
        {
          "internalType": "address",
          "name": "recipient",
          "type": "address"
        },
        {
          "internalType": "uint256",
          "name": "amount",
          "type": "uint256"
        }
      ],
      "name": "transferFrom",
      "outputs": [
        {
          "internalType": "bool",
          "name": "",
          "type": "bool"
        }
      ],
      "stateMutability": "nonpayable",
      "type": "function"
    },
    {
      "stateMutability": "payable",
      "type": "receive"
    },
    {
      "inputs": [],
      "name": "distributeDividends",
      "outputs": [],
      "stateMutability": "payable",
      "type": "function"
    },
    {
      "inputs": [],
      "name": "withdrawDividend",
      "outputs": [],
      "stateMutability": "nonpayable",
      "type": "function"
    },
    {
      "inputs": [
        {
          "internalType": "address",
          "name": "_owner",
          "type": "address"
        }
      ],
      "name": "dividendOf",
      "outputs": [
        {
          "internalType": "uint256",
          "name": "",
          "type": "uint256"
        }
      ],
      "stateMutability": "view",
      "type": "function"
    },
    {
      "inputs": [
        {
          "internalType": "address",
          "name": "_owner",
          "type": "address"
        }
      ],
      "name": "withdrawableDividendOf",
      "outputs": [
        {
          "internalType": "uint256",
          "name": "",
          "type": "uint256"
        }
      ],
      "stateMutability": "view",
      "type": "function"
    },
    {
      "inputs": [
        {
          "internalType": "address",
          "name": "_owner",
          "type": "address"
        }
      ],
      "name": "withdrawnDividendOf",
      "outputs": [
        {
          "internalType": "uint256",
          "name": "",
          "type": "uint256"
        }
      ],
      "stateMutability": "view",
      "type": "function"
    },
    {
      "inputs": [
        {
          "internalType": "address",
          "name": "_owner",
          "type": "address"
        }
      ],
      "name": "accumulativeDividendOf",
      "outputs": [
        {
          "internalType": "uint256",
          "name": "",
          "type": "uint256"
        }
      ],
      "stateMutability": "view",
      "type": "function"
    }
  ],
  "bytecode": "0x60806040523480156200001157600080fd5b5060405162001ea638038062001ea68339818101604052810190620000379190620001a3565b818181600390805190602001906200005192919062000075565b5080600490805190602001906200006a92919062000075565b5050505050620003ac565b8280546200008390620002bd565b90600052602060002090601f016020900481019282620000a75760008555620000f3565b82601f10620000c257805160ff1916838001178555620000f3565b82800160010185558215620000f3579182015b82811115620000f2578251825591602001919060010190620000d5565b5b50905062000102919062000106565b5090565b5b808211156200012157600081600090555060010162000107565b5090565b60006200013c620001368462000251565b62000228565b9050828152602081018484840111156200015b576200015a6200038c565b5b6200016884828562000287565b509392505050565b600082601f83011262000188576200018762000387565b5b81516200019a84826020860162000125565b91505092915050565b60008060408385031215620001bd57620001bc62000396565b5b600083015167ffffffffffffffff811115620001de57620001dd62000391565b5b620001ec8582860162000170565b925050602083015167ffffffffffffffff81111562000210576200020f62000391565b5b6200021e8582860162000170565b9150509250929050565b60006200023462000247565b9050620002428282620002f3565b919050565b6000604051905090565b600067ffffffffffffffff8211156200026f576200026e62000358565b5b6200027a826200039b565b9050602081019050919050565b60005b83811015620002a75780820151818401526020810190506200028a565b83811115620002b7576000848401525b50505050565b60006002820490506001821680620002d657607f821691505b60208210811415620002ed57620002ec62000329565b5b50919050565b620002fe826200039b565b810181811067ffffffffffffffff8211171562000320576200031f62000358565b5b80604052505050565b7f4e487b7100000000000000000000000000000000000000000000000000000000600052602260045260246000fd5b7f4e487b7100000000000000000000000000000000000000000000000000000000600052604160045260246000fd5b600080fd5b600080fd5b600080fd5b600080fd5b6000601f19601f8301169050919050565b611aea80620003bc6000396000f3fe60806040526004361061010d5760003560e01c806370a0823111610095578063a457c2d711610064578063a457c2d714610387578063a8b9d240146103c4578063a9059cbb14610401578063aafd847a1461043e578063dd62ed3e1461047b5761011c565b806370a08231146102b757806385a6b3ae146102f457806391b89fba1461031f57806395d89b411461035c5761011c565b806323b872dd116100dc57806323b872dd146101be57806327ce0147146101fb578063313ce5671461023857806339509351146102635780636a474002146102a05761011c565b806303c833021461012157806306fdde031461012b578063095ea7b31461015657806318160ddd146101935761011c565b3661011c5761011a6104b8565b005b600080fd5b6101296104b8565b005b34801561013757600080fd5b50610140610591565b60405161014d91906114a4565b60405180910390f35b34801561016257600080fd5b5061017d6004803603810190610178919061131f565b610623565b60405161018a9190611489565b60405180910390f35b34801561019f57600080fd5b506101a8610641565b6040516101b59190611546565b60405180910390f35b3480156101ca57600080fd5b506101e560048036038101906101e091906112cc565b61064b565b6040516101f29190611489565b60405180910390f35b34801561020757600080fd5b50610222600480360381019061021d919061125f565b610743565b60405161022f9190611546565b60405180910390f35b34801561024457600080fd5b5061024d6107e6565b60405161025a9190611561565b60405180910390f35b34801561026f57600080fd5b5061028a6004803603810190610285919061131f565b6107ef565b6040516102979190611489565b60405180910390f35b3480156102ac57600080fd5b506102b561089b565b005b3480156102c357600080fd5b506102de60048036038101906102d9919061125f565b6108a7565b6040516102eb9190611546565b60405180910390f35b34801561030057600080fd5b506103096108ef565b6040516103169190611546565b60405180910390f35b34801561032b57600080fd5b506103466004803603810190610341919061125f565b6108f5565b6040516103539190611546565b60405180910390f35b34801561036857600080fd5b50610371610907565b60405161037e91906114a4565b60405180910390f35b34801561039357600080fd5b506103ae60048036038101906103a9919061131f565b610999565b6040516103bb9190611489565b60405180910390f35b3480156103d057600080fd5b506103eb60048036038101906103e6919061125f565b610a84565b6040516103f89190611546565b60405180910390f35b34801561040d57600080fd5b506104286004803603810190610423919061131f565b610ae7565b6040516104359190611489565b60405180910390f35b34801561044a57600080fd5b506104656004803603810190610460919061125f565b610b05565b6040516104729190611546565b60405180910390f35b34801561048757600080fd5b506104a2600480360381019061049d919061128c565b610b4e565b6040516104af9190611546565b60405180910390f35b60006104c2610641565b116104cc57600080fd5b600034111561058f5761051f6104e0610641565b61050470010000000000000000000000000000000034610bd590919063ffffffff16565b61050e919061168d565b600554610beb90919063ffffffff16565b6005819055503373ffffffffffffffffffffffffffffffffffffffff167fa493a9229478c3fcd73f66d2cdeb7f94fd0f341da924d1054236d784541165113460405161056b9190611546565b60405180910390a261058834600854610beb90919063ffffffff16565b6008819055505b565b6060600380546105a090611872565b80601f01602080910402602001604051908101604052809291908181526020018280546105cc90611872565b80156106195780601f106105ee57610100808354040283529160200191610619565b820191906000526020600020905b8154815290600101906020018083116105fc57829003601f168201915b5050505050905090565b6000610637610630610c01565b8484610c09565b6001905092915050565b6000600254905090565b6000610658848484610dd4565b6000600160008673ffffffffffffffffffffffffffffffffffffffff1673ffffffffffffffffffffffffffffffffffffffff16815260200190815260200160002060006106a3610c01565b73ffffffffffffffffffffffffffffffffffffffff1673ffffffffffffffffffffffffffffffffffffffff16815260200190815260200160002054905082811015610723576040517f08c379a000000000000000000000000000000000000000000000000000000000815260040161071a906114e6565b60405180910390fd5b6107378561072f610c01565b858403610c09565b60019150509392505050565b60007001000000000000000000000000000000006107d56107d0600660008673ffffffffffffffffffffffffffffffffffffffff1673ffffffffffffffffffffffffffffffffffffffff168152602001908152602001600020546107c26107bd6107ac886108a7565b600554610bd590919063ffffffff16565b610f30565b610f4d90919063ffffffff16565b610f98565b6107df919061168d565b9050919050565b60006012905090565b60006108916107fc610c01565b84846001600061080a610c01565b73ffffffffffffffffffffffffffffffffffffffff1673ffffffffffffffffffffffffffffffffffffffff16815260200190815260200160002060008873ffffffffffffffffffffffffffffffffffffffff1673ffffffffffffffffffffffffffffffffffffffff1681526020019081526020016000205461088c9190611637565b610c09565b6001905092915050565b6108a433610faf565b50565b60008060008373ffffffffffffffffffffffffffffffffffffffff1673ffffffffffffffffffffffffffffffffffffffff168152602001908152602001600020549050919050565b60085481565b600061090082610a84565b9050919050565b60606004805461091690611872565b80601f016020809104026020016040519081016040528092919081815260200182805461094290611872565b801561098f5780601f106109645761010080835404028352916020019161098f565b820191906000526020600020905b81548152906001019060200180831161097257829003601f168201915b5050505050905090565b600080600160006109a8610c01565b73ffffffffffffffffffffffffffffffffffffffff1673ffffffffffffffffffffffffffffffffffffffff16815260200190815260200160002060008573ffffffffffffffffffffffffffffffffffffffff1673ffffffffffffffffffffffffffffffffffffffff16815260200190815260200160002054905082811015610a65576040517f08c379a0000000000000000000000000000000000000000000000000000000008152600401610a5c90611526565b60405180910390fd5b610a79610a70610c01565b85858403610c09565b600191505092915050565b6000610ae0600760008473ffffffffffffffffffffffffffffffffffffffff1673ffffffffffffffffffffffffffffffffffffffff16815260200190815260200160002054610ad284610743565b6111d490919063ffffffff16565b9050919050565b6000610afb610af4610c01565b8484610dd4565b6001905092915050565b6000600760008373ffffffffffffffffffffffffffffffffffffffff1673ffffffffffffffffffffffffffffffffffffffff168152602001908152602001600020549050919050565b6000600160008473ffffffffffffffffffffffffffffffffffffffff1673ffffffffffffffffffffffffffffffffffffffff16815260200190815260200160002060008373ffffffffffffffffffffffffffffffffffffffff1673ffffffffffffffffffffffffffffffffffffffff16815260200190815260200160002054905092915050565b60008183610be391906116be565b905092915050565b60008183610bf99190611637565b905092915050565b600033905090565b600073ffffffffffffffffffffffffffffffffffffffff168373ffffffffffffffffffffffffffffffffffffffff161415610c79576040517f08c379a0000000000000000000000000000000000000000000000000000000008152600401610c7090611506565b60405180910390fd5b600073ffffffffffffffffffffffffffffffffffffffff168273ffffffffffffffffffffffffffffffffffffffff161415610ce9576040517f08c379a0000000000000000000000000000000000000000000000000000000008152600401610ce0906114c6565b60405180910390fd5b80600160008573ffffffffffffffffffffffffffffffffffffffff1673ffffffffffffffffffffffffffffffffffffffff16815260200190815260200160002060008473ffffffffffffffffffffffffffffffffffffffff1673ffffffffffffffffffffffffffffffffffffffff168152602001908152602001600020819055508173ffffffffffffffffffffffffffffffffffffffff168373ffffffffffffffffffffffffffffffffffffffff167f8c5be1e5ebec7d5bd14f71427d1e84f3dd0314c0f7b2291e5b200ac8c7c3b92583604051610dc79190611546565b60405180910390a3505050565b6000610ddf57600080fd5b6000610dfe610df983600554610bd590919063ffffffff16565b610f30565b9050610e5281600660008773ffffffffffffffffffffffffffffffffffffffff1673ffffffffffffffffffffffffffffffffffffffff16815260200190815260200160002054610f4d90919063ffffffff16565b600660008673ffffffffffffffffffffffffffffffffffffffff1673ffffffffffffffffffffffffffffffffffffffff16815260200190815260200160002081905550610ee781600660008673ffffffffffffffffffffffffffffffffffffffff1673ffffffffffffffffffffffffffffffffffffffff168152602001908152602001600020546111ea90919063ffffffff16565b600660008573ffffffffffffffffffffffffffffffffffffffff1673ffffffffffffffffffffffffffffffffffffffff1681526020019081526020016000208190555050505050565b6000808290506000811215610f4457600080fd5b80915050919050565b6000808284610f5c91906115a3565b905060008312158015610f6f5750838112155b80610f855750600083128015610f8457508381125b5b610f8e57600080fd5b8091505092915050565b600080821215610fa757600080fd5b819050919050565b600080610fbb83610a84565b905060008111156111c95761101881600760008673ffffffffffffffffffffffffffffffffffffffff1673ffffffffffffffffffffffffffffffffffffffff16815260200190815260200160002054610beb90919063ffffffff16565b600760008573ffffffffffffffffffffffffffffffffffffffff1673ffffffffffffffffffffffffffffffffffffffff168152602001908152602001600020819055508273ffffffffffffffffffffffffffffffffffffffff167fee503bee2bb6a87e57bc57db795f98137327401a0e7b7ce42e37926cc1a9ca4d826040516110a19190611546565b60405180910390a260008373ffffffffffffffffffffffffffffffffffffffff1682610bb8906040516110d390611474565b600060405180830381858888f193505050503d8060008114611111576040519150601f19603f3d011682016040523d82523d6000602084013e611116565b606091505b50509050806111bf5761117182600760008773ffffffffffffffffffffffffffffffffffffffff1673ffffffffffffffffffffffffffffffffffffffff168152602001908152602001600020546111d490919063ffffffff16565b600760008673ffffffffffffffffffffffffffffffffffffffff1673ffffffffffffffffffffffffffffffffffffffff168152602001908152602001600020819055506000925050506111cf565b81925050506111cf565b60009150505b919050565b600081836111e291906117ac565b905092915050565b60008082846111f99190611718565b90506000831215801561120c5750838113155b80611222575060008312801561122157508381135b5b61122b57600080fd5b8091505092915050565b60008135905061124481611a86565b92915050565b60008135905061125981611a9d565b92915050565b60006020828403121561127557611274611931565b5b600061128384828501611235565b91505092915050565b600080604083850312156112a3576112a2611931565b5b60006112b185828601611235565b92505060206112c285828601611235565b9150509250929050565b6000806000606084860312156112e5576112e4611931565b5b60006112f386828701611235565b935050602061130486828701611235565b92505060406113158682870161124a565b9150509250925092565b6000806040838503121561133657611335611931565b5b600061134485828601611235565b92505060206113558582860161124a565b9150509250929050565b611368816117f2565b82525050565b60006113798261157c565b6113838185611592565b935061139381856020860161183f565b61139c81611936565b840191505092915050565b60006113b4602283611592565b91506113bf82611947565b604082019050919050565b60006113d7602883611592565b91506113e282611996565b604082019050919050565b60006113fa600083611587565b9150611405826119e5565b600082019050919050565b600061141d602483611592565b9150611428826119e8565b604082019050919050565b6000611440602583611592565b915061144b82611a37565b604082019050919050565b61145f81611828565b82525050565b61146e81611832565b82525050565b600061147f826113ed565b9150819050919050565b600060208201905061149e600083018461135f565b92915050565b600060208201905081810360008301526114be818461136e565b905092915050565b600060208201905081810360008301526114df816113a7565b9050919050565b600060208201905081810360008301526114ff816113ca565b9050919050565b6000602082019050818103600083015261151f81611410565b9050919050565b6000602082019050818103600083015261153f81611433565b9050919050565b600060208201905061155b6000830184611456565b92915050565b60006020820190506115766000830184611465565b92915050565b600081519050919050565b600081905092915050565b600082825260208201905092915050565b60006115ae826117fe565b91506115b9836117fe565b9250817f7fffffffffffffffffffffffffffffffffffffffffffffffffffffffffffffff038313600083121516156115f4576115f36118a4565b5b817f800000000000000000000000000000000000000000000000000000000000000003831260008312161561162c5761162b6118a4565b5b828201905092915050565b600061164282611828565b915061164d83611828565b9250827fffffffffffffffffffffffffffffffffffffffffffffffffffffffffffffffff03821115611682576116816118a4565b5b828201905092915050565b600061169882611828565b91506116a383611828565b9250826116b3576116b26118d3565b5b828204905092915050565b60006116c982611828565b91506116d483611828565b9250817fffffffffffffffffffffffffffffffffffffffffffffffffffffffffffffffff048311821515161561170d5761170c6118a4565b5b828202905092915050565b6000611723826117fe565b915061172e836117fe565b9250827f800000000000000000000000000000000000000000000000000000000000000001821260008412151615611769576117686118a4565b5b827f7fffffffffffffffffffffffffffffffffffffffffffffffffffffffffffffff0182136000841216156117a1576117a06118a4565b5b828203905092915050565b60006117b782611828565b91506117c283611828565b9250828210156117d5576117d46118a4565b5b828203905092915050565b60006117eb82611808565b9050919050565b60008115159050919050565b6000819050919050565b600073ffffffffffffffffffffffffffffffffffffffff82169050919050565b6000819050919050565b600060ff82169050919050565b60005b8381101561185d578082015181840152602081019050611842565b8381111561186c576000848401525b50505050565b6000600282049050600182168061188a57607f821691505b6020821081141561189e5761189d611902565b5b50919050565b7f4e487b7100000000000000000000000000000000000000000000000000000000600052601160045260246000fd5b7f4e487b7100000000000000000000000000000000000000000000000000000000600052601260045260246000fd5b7f4e487b7100000000000000000000000000000000000000000000000000000000600052602260045260246000fd5b600080fd5b6000601f19601f8301169050919050565b7f45524332303a20617070726f766520746f20746865207a65726f20616464726560008201527f7373000000000000000000000000000000000000000000000000000000000000602082015250565b7f45524332303a207472616e7366657220616d6f756e742065786365656473206160008201527f6c6c6f77616e6365000000000000000000000000000000000000000000000000602082015250565b50565b7f45524332303a20617070726f76652066726f6d20746865207a65726f2061646460008201527f7265737300000000000000000000000000000000000000000000000000000000602082015250565b7f45524332303a2064656372656173656420616c6c6f77616e63652062656c6f7760008201527f207a65726f000000000000000000000000000000000000000000000000000000602082015250565b611a8f816117e0565b8114611a9a57600080fd5b50565b611aa681611828565b8114611ab157600080fd5b5056fea264697066735822122041a8f625f8d4d0183e8ced2a86a80937c0cf0b35db45be9c72e632ad90cfabd864736f6c63430008070033",
  "immutableReferences": {},
  "source": "// SPDX-License-Identifier: MIT\n\npragma solidity ^0.8.7;\n\nimport \"@openzeppelin/contracts/token/ERC20/ERC20.sol\";\nimport \"@openzeppelin/contracts/utils/math/SafeMath.sol\";\nimport \"./SafeMathUint.sol\";\nimport \"./SafeMathInt.sol\";\nimport \"./DividendPayingTokenInterface.sol\";\nimport \"./DividendPayingTokenOptionalInterface.sol\";\n\n\n/// @title Dividend-Paying Token\n/// @author Roger Wu (https://github.com/roger-wu)\n/// @dev A mintable ERC20 token that allows anyone to pay and distribute ether\n///  to token holders as dividends and allows token holders to withdraw their dividends.\n///  Reference: the source code of PoWH3D: https://etherscan.io/address/0xB3775fB83F7D12A36E0475aBdD1FCA35c091efBe#code\ncontract DividendPayingToken is ERC20, DividendPayingTokenInterface, DividendPayingTokenOptionalInterface {\n  using SafeMath for uint256;\n  using SafeMathUint for uint256;\n  using SafeMathInt for int256;\n\n  // With `magnitude`, we can properly distribute dividends even if the amount of received ether is small.\n  // For more discussion about choosing the value of `magnitude`,\n  //  see https://github.com/ethereum/EIPs/issues/1726#issuecomment-472352728\n  uint256 constant internal magnitude = 2**128;\n\n  uint256 internal magnifiedDividendPerShare;\n\n  // About dividendCorrection:\n  // If the token balance of a `_user` is never changed, the dividend of `_user` can be computed with:\n  //   `dividendOf(_user) = dividendPerShare * balanceOf(_user)`.\n  // When `balanceOf(_user)` is changed (via minting/burning/transferring tokens),\n  //   `dividendOf(_user)` should not be changed,\n  //   but the computed value of `dividendPerShare * balanceOf(_user)` is changed.\n  // To keep the `dividendOf(_user)` unchanged, we add a correction term:\n  //   `dividendOf(_user) = dividendPerShare * balanceOf(_user) + dividendCorrectionOf(_user)`,\n  //   where `dividendCorrectionOf(_user)` is updated whenever `balanceOf(_user)` is changed:\n  //   `dividendCorrectionOf(_user) = dividendPerShare * (old balanceOf(_user)) - (new balanceOf(_user))`.\n  // So now `dividendOf(_user)` returns the same value before and after `balanceOf(_user)` is changed.\n  mapping(address => int256) internal magnifiedDividendCorrections;\n  mapping(address => uint256) internal withdrawnDividends;\n\n  uint256 public totalDividendsDistributed;\n\n  constructor(string memory _name, string memory _symbol) ERC20(_name, _symbol) {\n\n  }\n\n  /// @dev Distributes dividends whenever ether is paid to this contract.\n  receive() external payable {\n    distributeDividends();\n  }\n\n  /// @notice Distributes ether to token holders as dividends.\n  /// @dev It reverts if the total supply of tokens is 0.\n  /// It emits the `DividendsDistributed` event if the amount of received ether is greater than 0.\n  /// About undistributed ether:\n  ///   In each distribution, there is a small amount of ether not distributed,\n  ///     the magnified amount of which is\n  ///     `(msg.value * magnitude) % totalSupply()`.\n  ///   With a well-chosen `magnitude`, the amount of undistributed ether\n  ///     (de-magnified) in a distribution can be less than 1 wei.\n  ///   We can actually keep track of the undistributed ether in a distribution\n  ///     and try to distribute it in the next distribution,\n  ///     but keeping track of such data on-chain costs much more than\n  ///     the saved ether, so we don't do that.\n  function distributeDividends() public override payable {\n    require(totalSupply() > 0);\n\n    if (msg.value > 0) {\n      magnifiedDividendPerShare = magnifiedDividendPerShare.add(\n        (msg.value).mul(magnitude) / totalSupply()\n      );\n      emit DividendsDistributed(msg.sender, msg.value);\n\n      totalDividendsDistributed = totalDividendsDistributed.add(msg.value);\n    }\n  }\n\n  /// @notice Withdraws the ether distributed to the sender.\n  /// @dev It emits a `DividendWithdrawn` event if the amount of withdrawn ether is greater than 0.\n  function withdrawDividend() public virtual override {\n    _withdrawDividendOfUser(payable(msg.sender));\n  }\n\n  /// @notice Withdraws the ether distributed to the sender.\n  /// @dev It emits a `DividendWithdrawn` event if the amount of withdrawn ether is greater than 0.\n  function _withdrawDividendOfUser(address payable user) internal returns (uint256) {\n    uint256 _withdrawableDividend = withdrawableDividendOf(user);\n    if (_withdrawableDividend > 0) {\n      withdrawnDividends[user] = withdrawnDividends[user].add(_withdrawableDividend);\n      emit DividendWithdrawn(user, _withdrawableDividend);\n      (bool success,) = user.call{value: _withdrawableDividend, gas: 3000}(\"\");\n\n      if(!success) {\n        withdrawnDividends[user] = withdrawnDividends[user].sub(_withdrawableDividend);\n        return 0;\n      }\n\n      return _withdrawableDividend;\n    }\n\n    return 0;\n  }\n\n\n  /// @notice View the amount of dividend in wei that an address can withdraw.\n  /// @param _owner The address of a token holder.\n  /// @return The amount of dividend in wei that `_owner` can withdraw.\n  function dividendOf(address _owner) public view override returns(uint256) {\n    return withdrawableDividendOf(_owner);\n  }\n\n  /// @notice View the amount of dividend in wei that an address can withdraw.\n  /// @param _owner The address of a token holder.\n  /// @return The amount of dividend in wei that `_owner` can withdraw.\n  function withdrawableDividendOf(address _owner) public view override returns(uint256) {\n    return accumulativeDividendOf(_owner).sub(withdrawnDividends[_owner]);\n  }\n\n  /// @notice View the amount of dividend in wei that an address has withdrawn.\n  /// @param _owner The address of a token holder.\n  /// @return The amount of dividend in wei that `_owner` has withdrawn.\n  function withdrawnDividendOf(address _owner) public view override returns(uint256) {\n    return withdrawnDividends[_owner];\n  }\n\n\n  /// @notice View the amount of dividend in wei that an address has earned in total.\n  /// @dev accumulativeDividendOf(_owner) = withdrawableDividendOf(_owner) + withdrawnDividendOf(_owner)\n  /// = (magnifiedDividendPerShare * balanceOf(_owner) + magnifiedDividendCorrections[_owner]) / magnitude\n  /// @param _owner The address of a token holder.\n  /// @return The amount of dividend in wei that `_owner` has earned in total.\n  function accumulativeDividendOf(address _owner) public view override returns(uint256) {\n    return magnifiedDividendPerShare.mul(balanceOf(_owner)).toInt256Safe()\n      .add(magnifiedDividendCorrections[_owner]).toUint256Safe() / magnitude;\n  }\n\n  /// @dev Internal function that transfer tokens from one address to another.\n  /// Update magnifiedDividendCorrections to keep dividends unchanged.\n  /// @param from The address to transfer from.\n  /// @param to The address to transfer to.\n  /// @param value The amount to be transferred.\n  function _transfer(address from, address to, uint256 value) internal virtual override {\n    require(false);\n\n    int256 _magCorrection = magnifiedDividendPerShare.mul(value).toInt256Safe();\n    magnifiedDividendCorrections[from] = magnifiedDividendCorrections[from].add(_magCorrection);\n    magnifiedDividendCorrections[to] = magnifiedDividendCorrections[to].sub(_magCorrection);\n  }\n\n  /// @dev Internal function that mints tokens to an account.\n  /// Update magnifiedDividendCorrections to keep dividends unchanged.\n  /// @param account The account that will receive the created tokens.\n  /// @param value The amount that will be created.\n  function _mint(address account, uint256 value) internal override {\n    super._mint(account, value);\n\n    magnifiedDividendCorrections[account] = magnifiedDividendCorrections[account]\n      .sub( (magnifiedDividendPerShare.mul(value)).toInt256Safe() );\n  }\n\n  /// @dev Internal function that burns an amount of the token of a given account.\n  /// Update magnifiedDividendCorrections to keep dividends unchanged.\n  /// @param account The account whose tokens will be burnt.\n  /// @param value The amount that will be burnt.\n  function _burn(address account, uint256 value) internal override {\n    super._burn(account, value);\n\n    magnifiedDividendCorrections[account] = magnifiedDividendCorrections[account]\n      .add( (magnifiedDividendPerShare.mul(value)).toInt256Safe() );\n  }\n\n  function _setBalance(address account, uint256 newBalance) internal {\n    uint256 currentBalance = balanceOf(account);\n\n    if(newBalance > currentBalance) {\n      uint256 mintAmount = newBalance.sub(currentBalance);\n      _mint(account, mintAmount);\n    } else if(newBalance < currentBalance) {\n      uint256 burnAmount = currentBalance.sub(newBalance);\n      _burn(account, burnAmount);\n    }\n  }\n}\n",
  "sourcePath": "/solidity-dev/Doge-Malone-v1-ERC20-DeFi/contracts/DividendPayingToken.sol",
  "compiler": {
    "name": "solc",
    "version": "0.8.7+commit.e28d00a7.Emscripten.clang"
  },
  "schemaVersion": "3.4.3",
  "updatedAt": "2021-08-13T22:46:09.212Z",
  "devdoc": {
    "author": "Roger Wu (https://github.com/roger-wu)",
    "details": "A mintable ERC20 token that allows anyone to pay and distribute ether  to token holders as dividends and allows token holders to withdraw their dividends.  Reference: the source code of PoWH3D: https://etherscan.io/address/0xB3775fB83F7D12A36E0475aBdD1FCA35c091efBe#code",
    "kind": "dev",
    "methods": {
      "accumulativeDividendOf(address)": {
        "details": "accumulativeDividendOf(_owner) = withdrawableDividendOf(_owner) + withdrawnDividendOf(_owner) = (magnifiedDividendPerShare * balanceOf(_owner) + magnifiedDividendCorrections[_owner]) / magnitude",
        "params": {
          "_owner": "The address of a token holder."
        },
        "returns": {
          "_0": "The amount of dividend in wei that `_owner` has earned in total."
        }
      },
      "allowance(address,address)": {
        "details": "See {IERC20-allowance}."
      },
      "approve(address,uint256)": {
        "details": "See {IERC20-approve}. Requirements: - `spender` cannot be the zero address."
      },
      "balanceOf(address)": {
        "details": "See {IERC20-balanceOf}."
      },
      "decimals()": {
        "details": "Returns the number of decimals used to get its user representation. For example, if `decimals` equals `2`, a balance of `505` tokens should be displayed to a user as `5,05` (`505 / 10 ** 2`). Tokens usually opt for a value of 18, imitating the relationship between Ether and Wei. This is the value {ERC20} uses, unless this function is overridden; NOTE: This information is only used for _display_ purposes: it in no way affects any of the arithmetic of the contract, including {IERC20-balanceOf} and {IERC20-transfer}."
      },
      "decreaseAllowance(address,uint256)": {
        "details": "Atomically decreases the allowance granted to `spender` by the caller. This is an alternative to {approve} that can be used as a mitigation for problems described in {IERC20-approve}. Emits an {Approval} event indicating the updated allowance. Requirements: - `spender` cannot be the zero address. - `spender` must have allowance for the caller of at least `subtractedValue`."
      },
      "distributeDividends()": {
        "details": "It reverts if the total supply of tokens is 0. It emits the `DividendsDistributed` event if the amount of received ether is greater than 0. About undistributed ether:   In each distribution, there is a small amount of ether not distributed,     the magnified amount of which is     `(msg.value * magnitude) % totalSupply()`.   With a well-chosen `magnitude`, the amount of undistributed ether     (de-magnified) in a distribution can be less than 1 wei.   We can actually keep track of the undistributed ether in a distribution     and try to distribute it in the next distribution,     but keeping track of such data on-chain costs much more than     the saved ether, so we don't do that."
      },
      "dividendOf(address)": {
        "params": {
          "_owner": "The address of a token holder."
        },
        "returns": {
          "_0": "The amount of dividend in wei that `_owner` can withdraw."
        }
      },
      "increaseAllowance(address,uint256)": {
        "details": "Atomically increases the allowance granted to `spender` by the caller. This is an alternative to {approve} that can be used as a mitigation for problems described in {IERC20-approve}. Emits an {Approval} event indicating the updated allowance. Requirements: - `spender` cannot be the zero address."
      },
      "name()": {
        "details": "Returns the name of the token."
      },
      "symbol()": {
        "details": "Returns the symbol of the token, usually a shorter version of the name."
      },
      "totalSupply()": {
        "details": "See {IERC20-totalSupply}."
      },
      "transfer(address,uint256)": {
        "details": "See {IERC20-transfer}. Requirements: - `recipient` cannot be the zero address. - the caller must have a balance of at least `amount`."
      },
      "transferFrom(address,address,uint256)": {
        "details": "See {IERC20-transferFrom}. Emits an {Approval} event indicating the updated allowance. This is not required by the EIP. See the note at the beginning of {ERC20}. Requirements: - `sender` and `recipient` cannot be the zero address. - `sender` must have a balance of at least `amount`. - the caller must have allowance for ``sender``'s tokens of at least `amount`."
      },
      "withdrawDividend()": {
        "details": "It emits a `DividendWithdrawn` event if the amount of withdrawn ether is greater than 0."
      },
      "withdrawableDividendOf(address)": {
        "params": {
          "_owner": "The address of a token holder."
        },
        "returns": {
          "_0": "The amount of dividend in wei that `_owner` can withdraw."
        }
      },
      "withdrawnDividendOf(address)": {
        "params": {
          "_owner": "The address of a token holder."
        },
        "returns": {
          "_0": "The amount of dividend in wei that `_owner` has withdrawn."
        }
      }
    },
    "title": "Dividend-Paying Token",
    "version": 1
  },
  "userdoc": {
    "kind": "user",
    "methods": {
      "accumulativeDividendOf(address)": {
        "notice": "View the amount of dividend in wei that an address has earned in total."
      },
      "distributeDividends()": {
        "notice": "Distributes ether to token holders as dividends."
      },
      "dividendOf(address)": {
        "notice": "View the amount of dividend in wei that an address can withdraw."
      },
      "withdrawDividend()": {
        "notice": "Withdraws the ether distributed to the sender."
      },
      "withdrawableDividendOf(address)": {
        "notice": "View the amount of dividend in wei that an address can withdraw."
      },
      "withdrawnDividendOf(address)": {
        "notice": "View the amount of dividend in wei that an address has withdrawn."
      }
    },
    "version": 1
  }
}